{
	"beggingcontract.sol": {
		"BeggingContract": {
			"abi": [
				{
					"inputs": [
						{
							"internalType": "uint256",
							"name": "_endTime",
							"type": "uint256"
						}
					],
					"stateMutability": "nonpayable",
					"type": "constructor"
				},
				{
					"anonymous": false,
					"inputs": [
						{
							"indexed": true,
							"internalType": "address",
							"name": "donor",
							"type": "address"
						},
						{
							"indexed": false,
							"internalType": "uint256",
							"name": "amount",
							"type": "uint256"
						}
					],
					"name": "Donation",
					"type": "event"
				},
				{
					"anonymous": false,
					"inputs": [
						{
							"indexed": true,
							"internalType": "address",
							"name": "owner",
							"type": "address"
						},
						{
							"indexed": false,
							"internalType": "uint256",
							"name": "amount",
							"type": "uint256"
						}
					],
					"name": "Withdrawal",
					"type": "event"
				},
				{
					"inputs": [],
					"name": "donate",
					"outputs": [],
					"stateMutability": "payable",
					"type": "function"
				},
				{
					"inputs": [
						{
							"internalType": "address",
							"name": "",
							"type": "address"
						}
					],
					"name": "donations",
					"outputs": [
						{
							"internalType": "uint256",
							"name": "",
							"type": "uint256"
						}
					],
					"stateMutability": "view",
					"type": "function"
				},
				{
					"inputs": [
						{
							"internalType": "uint256",
							"name": "",
							"type": "uint256"
						}
					],
					"name": "donators",
					"outputs": [
						{
							"internalType": "address",
							"name": "",
							"type": "address"
						}
					],
					"stateMutability": "view",
					"type": "function"
				},
				{
					"inputs": [],
					"name": "endTime",
					"outputs": [
						{
							"internalType": "uint256",
							"name": "",
							"type": "uint256"
						}
					],
					"stateMutability": "view",
					"type": "function"
				},
				{
					"inputs": [],
					"name": "getAllDonators",
					"outputs": [
						{
							"internalType": "address[]",
							"name": "",
							"type": "address[]"
						}
					],
					"stateMutability": "view",
					"type": "function"
				},
				{
					"inputs": [],
					"name": "getBalance",
					"outputs": [
						{
							"internalType": "uint256",
							"name": "",
							"type": "uint256"
						}
					],
					"stateMutability": "view",
					"type": "function"
				},
				{
					"inputs": [
						{
							"internalType": "address",
							"name": "donor",
							"type": "address"
						}
					],
					"name": "getDonation",
					"outputs": [
						{
							"internalType": "uint256",
							"name": "",
							"type": "uint256"
						}
					],
					"stateMutability": "view",
					"type": "function"
				},
				{
					"inputs": [],
					"name": "getDonatorCount",
					"outputs": [
						{
							"internalType": "uint256",
							"name": "",
							"type": "uint256"
						}
					],
					"stateMutability": "view",
					"type": "function"
				},
				{
					"inputs": [
						{
							"internalType": "uint256",
							"name": "n",
							"type": "uint256"
						}
					],
					"name": "getTopDonors",
					"outputs": [
						{
							"components": [
								{
									"internalType": "address",
									"name": "addr",
									"type": "address"
								},
								{
									"internalType": "uint256",
									"name": "amount",
									"type": "uint256"
								}
							],
							"internalType": "struct BeggingContract.Donor[]",
							"name": "",
							"type": "tuple[]"
						}
					],
					"stateMutability": "view",
					"type": "function"
				},
				{
					"inputs": [],
					"name": "owner",
					"outputs": [
						{
							"internalType": "address",
							"name": "",
							"type": "address"
						}
					],
					"stateMutability": "view",
					"type": "function"
				},
				{
					"inputs": [],
					"name": "withdraw",
					"outputs": [],
					"stateMutability": "nonpayable",
					"type": "function"
				},
				{
					"stateMutability": "payable",
					"type": "receive"
				}
			],
			"devdoc": {
				"kind": "dev",
				"methods": {},
				"version": 1
			},
			"evm": {
				"assembly": "    /* \"beggingcontract.sol\":58:4634  contract BeggingContract {... */\n  mstore(0x40, 0x80)\n    /* \"beggingcontract.sol\":1297:1390  constructor(uint256 _endTime) {... */\n  callvalue\n  dup1\n  iszero\n  tag_1\n  jumpi\n  revert(0x00, 0x00)\ntag_1:\n  pop\n  mload(0x40)\n  sub(codesize, bytecodeSize)\n  dup1\n  bytecodeSize\n  dup4\n  codecopy\n  dup2\n  dup2\n  add\n  0x40\n  mstore\n  dup2\n  add\n  swap1\n  tag_2\n  swap2\n  swap1\n  tag_3\n  jump\t// in\ntag_2:\n    /* \"beggingcontract.sol\":1345:1355  msg.sender */\n  caller\n    /* \"beggingcontract.sol\":1337:1342  owner */\n  0x00\n  0x00\n    /* \"beggingcontract.sol\":1337:1355  owner = msg.sender */\n  0x0100\n  exp\n  dup2\n  sload\n  dup2\n  0xffffffffffffffffffffffffffffffffffffffff\n  mul\n  not\n  and\n  swap1\n  dup4\n  0xffffffffffffffffffffffffffffffffffffffff\n  and\n  mul\n  or\n  swap1\n  sstore\n  pop\n    /* \"beggingcontract.sol\":1375:1383  _endTime */\n  dup1\n    /* \"beggingcontract.sol\":1365:1372  endTime */\n  0x04\n    /* \"beggingcontract.sol\":1365:1383  endTime = _endTime */\n  dup2\n  swap1\n  sstore\n  pop\n    /* \"beggingcontract.sol\":1297:1390  constructor(uint256 _endTime) {... */\n  pop\n    /* \"beggingcontract.sol\":58:4634  contract BeggingContract {... */\n  jump(tag_6)\n    /* \"#utility.yul\":88:205   */\ntag_8:\n    /* \"#utility.yul\":197:198   */\n  0x00\n    /* \"#utility.yul\":194:195   */\n  0x00\n    /* \"#utility.yul\":187:199   */\n  revert\n    /* \"#utility.yul\":334:411   */\ntag_10:\n    /* \"#utility.yul\":371:378   */\n  0x00\n    /* \"#utility.yul\":400:405   */\n  dup2\n    /* \"#utility.yul\":389:405   */\n  swap1\n  pop\n    /* \"#utility.yul\":334:411   */\n  swap2\n  swap1\n  pop\n  jump\t// out\n    /* \"#utility.yul\":417:539   */\ntag_11:\n    /* \"#utility.yul\":490:514   */\n  tag_19\n    /* \"#utility.yul\":508:513   */\n  dup2\n    /* \"#utility.yul\":490:514   */\n  tag_10\n  jump\t// in\ntag_19:\n    /* \"#utility.yul\":483:488   */\n  dup2\n    /* \"#utility.yul\":480:515   */\n  eq\n    /* \"#utility.yul\":470:533   */\n  tag_20\n  jumpi\n    /* \"#utility.yul\":529:530   */\n  0x00\n    /* \"#utility.yul\":526:527   */\n  0x00\n    /* \"#utility.yul\":519:531   */\n  revert\n    /* \"#utility.yul\":470:533   */\ntag_20:\n    /* \"#utility.yul\":417:539   */\n  pop\n  jump\t// out\n    /* \"#utility.yul\":545:688   */\ntag_12:\n    /* \"#utility.yul\":602:607   */\n  0x00\n    /* \"#utility.yul\":633:639   */\n  dup2\n    /* \"#utility.yul\":627:640   */\n  mload\n    /* \"#utility.yul\":618:640   */\n  swap1\n  pop\n    /* \"#utility.yul\":649:682   */\n  tag_22\n    /* \"#utility.yul\":676:681   */\n  dup2\n    /* \"#utility.yul\":649:682   */\n  tag_11\n  jump\t// in\ntag_22:\n    /* \"#utility.yul\":545:688   */\n  swap3\n  swap2\n  pop\n  pop\n  jump\t// out\n    /* \"#utility.yul\":694:1045   */\ntag_3:\n    /* \"#utility.yul\":764:770   */\n  0x00\n    /* \"#utility.yul\":813:815   */\n  0x20\n    /* \"#utility.yul\":801:810   */\n  dup3\n    /* \"#utility.yul\":792:799   */\n  dup5\n    /* \"#utility.yul\":788:811   */\n  sub\n    /* \"#utility.yul\":784:816   */\n  slt\n    /* \"#utility.yul\":781:900   */\n  iszero\n  tag_24\n  jumpi\n    /* \"#utility.yul\":819:898   */\n  tag_25\n  tag_8\n  jump\t// in\ntag_25:\n    /* \"#utility.yul\":781:900   */\ntag_24:\n    /* \"#utility.yul\":939:940   */\n  0x00\n    /* \"#utility.yul\":964:1028   */\n  tag_26\n    /* \"#utility.yul\":1020:1027   */\n  dup5\n    /* \"#utility.yul\":1011:1017   */\n  dup3\n    /* \"#utility.yul\":1000:1009   */\n  dup6\n    /* \"#utility.yul\":996:1018   */\n  add\n    /* \"#utility.yul\":964:1028   */\n  tag_12\n  jump\t// in\ntag_26:\n    /* \"#utility.yul\":954:1028   */\n  swap2\n  pop\n    /* \"#utility.yul\":910:1038   */\n  pop\n    /* \"#utility.yul\":694:1045   */\n  swap3\n  swap2\n  pop\n  pop\n  jump\t// out\n    /* \"beggingcontract.sol\":58:4634  contract BeggingContract {... */\ntag_6:\n  dataSize(sub_0)\n  dup1\n  dataOffset(sub_0)\n  0x00\n  codecopy\n  0x00\n  return\nstop\n\nsub_0: assembly {\n        /* \"beggingcontract.sol\":58:4634  contract BeggingContract {... */\n      mstore(0x40, 0x80)\n      jumpi(tag_1, lt(calldatasize, 0x04))\n      shr(0xe0, calldataload(0x00))\n      dup1\n      0x8da5cb5b\n      gt\n      tag_14\n      jumpi\n      dup1\n      0x8da5cb5b\n      eq\n      tag_8\n      jumpi\n      dup1\n      0x9171b1a9\n      eq\n      tag_9\n      jumpi\n      dup1\n      0xac62f566\n      eq\n      tag_10\n      jumpi\n      dup1\n      0xcc6cb19a\n      eq\n      tag_11\n      jumpi\n      dup1\n      0xed88c68e\n      eq\n      tag_12\n      jumpi\n      dup1\n      0xf5d1282b\n      eq\n      tag_13\n      jumpi\n      jump(tag_2)\n    tag_14:\n      dup1\n      0x12065fe0\n      eq\n      tag_3\n      jumpi\n      dup1\n      0x3197cbb6\n      eq\n      tag_4\n      jumpi\n      dup1\n      0x3ccfd60b\n      eq\n      tag_5\n      jumpi\n      dup1\n      0x410a1d32\n      eq\n      tag_6\n      jumpi\n      dup1\n      0x85aae382\n      eq\n      tag_7\n      jumpi\n      jump(tag_2)\n    tag_1:\n      jumpi(tag_2, calldatasize)\n        /* \"beggingcontract.sol\":4617:4625  donate() */\n      tag_17\n        /* \"beggingcontract.sol\":4617:4623  donate */\n      tag_18\n        /* \"beggingcontract.sol\":4617:4625  donate() */\n      jump\t// in\n    tag_17:\n        /* \"beggingcontract.sol\":58:4634  contract BeggingContract {... */\n      stop\n    tag_2:\n      revert(0x00, 0x00)\n        /* \"beggingcontract.sol\":2572:2669  function getBalance() public view returns (uint256) {... */\n    tag_3:\n      callvalue\n      dup1\n      iszero\n      tag_19\n      jumpi\n      revert(0x00, 0x00)\n    tag_19:\n      pop\n      tag_20\n      tag_21\n      jump\t// in\n    tag_20:\n      mload(0x40)\n      tag_22\n      swap2\n      swap1\n      tag_23\n      jump\t// in\n    tag_22:\n      mload(0x40)\n      dup1\n      swap2\n      sub\n      swap1\n      return\n        /* \"beggingcontract.sol\":740:762  uint256 public endTime */\n    tag_4:\n      callvalue\n      dup1\n      iszero\n      tag_24\n      jumpi\n      revert(0x00, 0x00)\n    tag_24:\n      pop\n      tag_25\n      tag_26\n      jump\t// in\n    tag_25:\n      mload(0x40)\n      tag_27\n      swap2\n      swap1\n      tag_23\n      jump\t// in\n    tag_27:\n      mload(0x40)\n      dup1\n      swap2\n      sub\n      swap1\n      return\n        /* \"beggingcontract.sol\":2055:2373  function withdraw() public onlyOwner {... */\n    tag_5:\n      callvalue\n      dup1\n      iszero\n      tag_28\n      jumpi\n      revert(0x00, 0x00)\n    tag_28:\n      pop\n      tag_29\n      tag_30\n      jump\t// in\n    tag_29:\n      stop\n        /* \"beggingcontract.sol\":2424:2530  function getDonation(address donor) public view returns (uint256) {... */\n    tag_6:\n      callvalue\n      dup1\n      iszero\n      tag_31\n      jumpi\n      revert(0x00, 0x00)\n    tag_31:\n      pop\n      tag_32\n      0x04\n      dup1\n      calldatasize\n      sub\n      dup2\n      add\n      swap1\n      tag_33\n      swap2\n      swap1\n      tag_34\n      jump\t// in\n    tag_33:\n      tag_35\n      jump\t// in\n    tag_32:\n      mload(0x40)\n      tag_36\n      swap2\n      swap1\n      tag_23\n      jump\t// in\n    tag_36:\n      mload(0x40)\n      dup1\n      swap2\n      sub\n      swap1\n      return\n        /* \"beggingcontract.sol\":2849:2946  function getAllDonators() public view returns (address[] memory) {... */\n    tag_7:\n      callvalue\n      dup1\n      iszero\n      tag_37\n      jumpi\n      revert(0x00, 0x00)\n    tag_37:\n      pop\n      tag_38\n      tag_39\n      jump\t// in\n    tag_38:\n      mload(0x40)\n      tag_40\n      swap2\n      swap1\n      tag_41\n      jump\t// in\n    tag_40:\n      mload(0x40)\n      dup1\n      swap2\n      sub\n      swap1\n      return\n        /* \"beggingcontract.sol\":112:132  address public owner */\n    tag_8:\n      callvalue\n      dup1\n      iszero\n      tag_42\n      jumpi\n      revert(0x00, 0x00)\n    tag_42:\n      pop\n      tag_43\n      tag_44\n      jump\t// in\n    tag_43:\n      mload(0x40)\n      tag_45\n      swap2\n      swap1\n      tag_46\n      jump\t// in\n    tag_45:\n      mload(0x40)\n      dup1\n      swap2\n      sub\n      swap1\n      return\n        /* \"beggingcontract.sol\":2708:2804  function getDonatorCount() public view returns (uint256) {... */\n    tag_9:\n      callvalue\n      dup1\n      iszero\n      tag_47\n      jumpi\n      revert(0x00, 0x00)\n    tag_47:\n      pop\n      tag_48\n      tag_49\n      jump\t// in\n    tag_48:\n      mload(0x40)\n      tag_50\n      swap2\n      swap1\n      tag_23\n      jump\t// in\n    tag_50:\n      mload(0x40)\n      dup1\n      swap2\n      sub\n      swap1\n      return\n        /* \"beggingcontract.sol\":277:302  address[] public donators */\n    tag_10:\n      callvalue\n      dup1\n      iszero\n      tag_51\n      jumpi\n      revert(0x00, 0x00)\n    tag_51:\n      pop\n      tag_52\n      0x04\n      dup1\n      calldatasize\n      sub\n      dup2\n      add\n      swap1\n      tag_53\n      swap2\n      swap1\n      tag_54\n      jump\t// in\n    tag_53:\n      tag_55\n      jump\t// in\n    tag_52:\n      mload(0x40)\n      tag_56\n      swap2\n      swap1\n      tag_46\n      jump\t// in\n    tag_56:\n      mload(0x40)\n      dup1\n      swap2\n      sub\n      swap1\n      return\n        /* \"beggingcontract.sol\":187:231  mapping(address => uint256) public donations */\n    tag_11:\n      callvalue\n      dup1\n      iszero\n      tag_57\n      jumpi\n      revert(0x00, 0x00)\n    tag_57:\n      pop\n      tag_58\n      0x04\n      dup1\n      calldatasize\n      sub\n      dup2\n      add\n      swap1\n      tag_59\n      swap2\n      swap1\n      tag_34\n      jump\t// in\n    tag_59:\n      tag_60\n      jump\t// in\n    tag_58:\n      mload(0x40)\n      tag_61\n      swap2\n      swap1\n      tag_23\n      jump\t// in\n    tag_61:\n      mload(0x40)\n      dup1\n      swap2\n      sub\n      swap1\n      return\n        /* \"beggingcontract.sol\":1459:1995  function donate() public payable notExpired{... */\n    tag_12:\n      tag_62\n      tag_18\n      jump\t// in\n    tag_62:\n      stop\n        /* \"beggingcontract.sol\":4142:4510  function getTopDonors(uint256 n) external view returns (Donor[] memory) {... */\n    tag_13:\n      callvalue\n      dup1\n      iszero\n      tag_63\n      jumpi\n      revert(0x00, 0x00)\n    tag_63:\n      pop\n      tag_64\n      0x04\n      dup1\n      calldatasize\n      sub\n      dup2\n      add\n      swap1\n      tag_65\n      swap2\n      swap1\n      tag_54\n      jump\t// in\n    tag_65:\n      tag_66\n      jump\t// in\n    tag_64:\n      mload(0x40)\n      tag_67\n      swap2\n      swap1\n      tag_68\n      jump\t// in\n    tag_67:\n      mload(0x40)\n      dup1\n      swap2\n      sub\n      swap1\n      return\n        /* \"beggingcontract.sol\":1459:1995  function donate() public payable notExpired{... */\n    tag_18:\n        /* \"beggingcontract.sol\":1221:1228  endTime */\n      sload(0x04)\n        /* \"beggingcontract.sol\":1202:1217  block.timestamp */\n      timestamp\n        /* \"beggingcontract.sol\":1202:1228  block.timestamp <= endTime */\n      gt\n      iszero\n        /* \"beggingcontract.sol\":1194:1249  require(block.timestamp <= endTime, \"Campaign expired\") */\n      tag_70\n      jumpi\n      mload(0x40)\n      0x08c379a000000000000000000000000000000000000000000000000000000000\n      dup2\n      mstore\n      0x04\n      add\n      tag_71\n      swap1\n      tag_72\n      jump\t// in\n    tag_71:\n      mload(0x40)\n      dup1\n      swap2\n      sub\n      swap1\n      revert\n    tag_70:\n        /* \"beggingcontract.sol\":1532:1533  0 */\n      0x00\n        /* \"beggingcontract.sol\":1520:1529  msg.value */\n      callvalue\n        /* \"beggingcontract.sol\":1520:1533  msg.value > 0 */\n      gt\n        /* \"beggingcontract.sol\":1512:1576  require(msg.value > 0, \"Donation amount must be greater than 0\") */\n      tag_74\n      jumpi\n      mload(0x40)\n      0x08c379a000000000000000000000000000000000000000000000000000000000\n      dup2\n      mstore\n      0x04\n      add\n      tag_75\n      swap1\n      tag_76\n      jump\t// in\n    tag_75:\n      mload(0x40)\n      dup1\n      swap2\n      sub\n      swap1\n      revert\n    tag_74:\n        /* \"beggingcontract.sol\":1684:1685  0 */\n      0x00\n        /* \"beggingcontract.sol\":1659:1668  donations */\n      0x01\n        /* \"beggingcontract.sol\":1659:1680  donations[msg.sender] */\n      0x00\n        /* \"beggingcontract.sol\":1669:1679  msg.sender */\n      caller\n        /* \"beggingcontract.sol\":1659:1680  donations[msg.sender] */\n      0xffffffffffffffffffffffffffffffffffffffff\n      and\n      0xffffffffffffffffffffffffffffffffffffffff\n      and\n      dup2\n      mstore\n      0x20\n      add\n      swap1\n      dup2\n      mstore\n      0x20\n      add\n      0x00\n      keccak256\n      sload\n        /* \"beggingcontract.sol\":1659:1685  donations[msg.sender] == 0 */\n      sub\n        /* \"beggingcontract.sol\":1655:1737  if (donations[msg.sender] == 0) {... */\n      tag_77\n      jumpi\n        /* \"beggingcontract.sol\":1701:1709  donators */\n      0x02\n        /* \"beggingcontract.sol\":1715:1725  msg.sender */\n      caller\n        /* \"beggingcontract.sol\":1701:1726  donators.push(msg.sender) */\n      swap1\n      dup1\n      0x01\n      dup2\n      sload\n      add\n      dup1\n      dup3\n      sstore\n      dup1\n      swap2\n      pop\n      pop\n      0x01\n      swap1\n      sub\n      swap1\n      0x00\n      mstore\n      keccak256(0x00, 0x20)\n      add\n      0x00\n      swap1\n      swap2\n      swap1\n      swap2\n      swap1\n      swap2\n      0x0100\n      exp\n      dup2\n      sload\n      dup2\n      0xffffffffffffffffffffffffffffffffffffffff\n      mul\n      not\n      and\n      swap1\n      dup4\n      0xffffffffffffffffffffffffffffffffffffffff\n      and\n      mul\n      or\n      swap1\n      sstore\n      pop\n        /* \"beggingcontract.sol\":1655:1737  if (donations[msg.sender] == 0) {... */\n    tag_77:\n        /* \"beggingcontract.sol\":1810:1819  msg.value */\n      callvalue\n        /* \"beggingcontract.sol\":1785:1794  donations */\n      0x01\n        /* \"beggingcontract.sol\":1785:1806  donations[msg.sender] */\n      0x00\n        /* \"beggingcontract.sol\":1795:1805  msg.sender */\n      caller\n        /* \"beggingcontract.sol\":1785:1806  donations[msg.sender] */\n      0xffffffffffffffffffffffffffffffffffffffff\n      and\n      0xffffffffffffffffffffffffffffffffffffffff\n      and\n      dup2\n      mstore\n      0x20\n      add\n      swap1\n      dup2\n      mstore\n      0x20\n      add\n      0x00\n      keccak256\n      0x00\n        /* \"beggingcontract.sol\":1785:1819  donations[msg.sender] += msg.value */\n      dup3\n      dup3\n      sload\n      tag_79\n      swap2\n      swap1\n      tag_80\n      jump\t// in\n    tag_79:\n      swap3\n      pop\n      pop\n      dup2\n      swap1\n      sstore\n      pop\n        /* \"beggingcontract.sol\":1864:1912  _updateRanking(msg.sender,donations[msg.sender]) */\n      tag_81\n        /* \"beggingcontract.sol\":1879:1889  msg.sender */\n      caller\n        /* \"beggingcontract.sol\":1890:1899  donations */\n      0x01\n        /* \"beggingcontract.sol\":1890:1911  donations[msg.sender] */\n      0x00\n        /* \"beggingcontract.sol\":1900:1910  msg.sender */\n      caller\n        /* \"beggingcontract.sol\":1890:1911  donations[msg.sender] */\n      0xffffffffffffffffffffffffffffffffffffffff\n      and\n      0xffffffffffffffffffffffffffffffffffffffff\n      and\n      dup2\n      mstore\n      0x20\n      add\n      swap1\n      dup2\n      mstore\n      0x20\n      add\n      0x00\n      keccak256\n      sload\n        /* \"beggingcontract.sol\":1864:1878  _updateRanking */\n      tag_82\n        /* \"beggingcontract.sol\":1864:1912  _updateRanking(msg.sender,donations[msg.sender]) */\n      jump\t// in\n    tag_81:\n        /* \"beggingcontract.sol\":1966:1976  msg.sender */\n      caller\n        /* \"beggingcontract.sol\":1957:1988  Donation(msg.sender, msg.value) */\n      0xffffffffffffffffffffffffffffffffffffffff\n      and\n      0x5d8bc849764969eb1bcc6d0a2f55999d0167c1ccec240a4f39cf664ca9c4148e\n        /* \"beggingcontract.sol\":1978:1987  msg.value */\n      callvalue\n        /* \"beggingcontract.sol\":1957:1988  Donation(msg.sender, msg.value) */\n      mload(0x40)\n      tag_83\n      swap2\n      swap1\n      tag_23\n      jump\t// in\n    tag_83:\n      mload(0x40)\n      dup1\n      swap2\n      sub\n      swap1\n      log2\n        /* \"beggingcontract.sol\":1459:1995  function donate() public payable notExpired{... */\n      jump\t// out\n        /* \"beggingcontract.sol\":2572:2669  function getBalance() public view returns (uint256) {... */\n    tag_21:\n        /* \"beggingcontract.sol\":2615:2622  uint256 */\n      0x00\n        /* \"beggingcontract.sol\":2641:2662  address(this).balance */\n      selfbalance\n        /* \"beggingcontract.sol\":2634:2662  return address(this).balance */\n      swap1\n      pop\n        /* \"beggingcontract.sol\":2572:2669  function getBalance() public view returns (uint256) {... */\n      swap1\n      jump\t// out\n        /* \"beggingcontract.sol\":740:762  uint256 public endTime */\n    tag_26:\n      sload(0x04)\n      dup2\n      jump\t// out\n        /* \"beggingcontract.sol\":2055:2373  function withdraw() public onlyOwner {... */\n    tag_30:\n        /* \"beggingcontract.sol\":1105:1110  owner */\n      0x00\n      0x00\n      swap1\n      sload\n      swap1\n      0x0100\n      exp\n      swap1\n      div\n      0xffffffffffffffffffffffffffffffffffffffff\n      and\n        /* \"beggingcontract.sol\":1091:1110  msg.sender == owner */\n      0xffffffffffffffffffffffffffffffffffffffff\n      and\n        /* \"beggingcontract.sol\":1091:1101  msg.sender */\n      caller\n        /* \"beggingcontract.sol\":1091:1110  msg.sender == owner */\n      0xffffffffffffffffffffffffffffffffffffffff\n      and\n      eq\n        /* \"beggingcontract.sol\":1083:1138  require(msg.sender == owner, \"Only owner can withdraw\") */\n      tag_86\n      jumpi\n      mload(0x40)\n      0x08c379a000000000000000000000000000000000000000000000000000000000\n      dup2\n      mstore\n      0x04\n      add\n      tag_87\n      swap1\n      tag_88\n      jump\t// in\n    tag_87:\n      mload(0x40)\n      dup1\n      swap2\n      sub\n      swap1\n      revert\n    tag_86:\n        /* \"beggingcontract.sol\":2102:2117  uint256 balance */\n      0x00\n        /* \"beggingcontract.sol\":2120:2141  address(this).balance */\n      selfbalance\n        /* \"beggingcontract.sol\":2102:2141  uint256 balance = address(this).balance */\n      swap1\n      pop\n        /* \"beggingcontract.sol\":2169:2170  0 */\n      0x00\n        /* \"beggingcontract.sol\":2159:2166  balance */\n      dup2\n        /* \"beggingcontract.sol\":2159:2170  balance > 0 */\n      gt\n        /* \"beggingcontract.sol\":2151:2205  require(balance > 0, \"No funds available to withdraw\") */\n      tag_90\n      jumpi\n      mload(0x40)\n      0x08c379a000000000000000000000000000000000000000000000000000000000\n      dup2\n      mstore\n      0x04\n      add\n      tag_91\n      swap1\n      tag_92\n      jump\t// in\n    tag_91:\n      mload(0x40)\n      dup1\n      swap2\n      sub\n      swap1\n      revert\n    tag_90:\n        /* \"beggingcontract.sol\":2262:2267  owner */\n      0x00\n      0x00\n      swap1\n      sload\n      swap1\n      0x0100\n      exp\n      swap1\n      div\n      0xffffffffffffffffffffffffffffffffffffffff\n      and\n        /* \"beggingcontract.sol\":2254:2277  payable(owner).transfer */\n      0xffffffffffffffffffffffffffffffffffffffff\n      and\n        /* \"beggingcontract.sol\":2254:2286  payable(owner).transfer(balance) */\n      0x08fc\n        /* \"beggingcontract.sol\":2278:2285  balance */\n      dup3\n        /* \"beggingcontract.sol\":2254:2286  payable(owner).transfer(balance) */\n      swap1\n      dup2\n      iszero\n      mul\n      swap1\n      mload(0x40)\n      0x00\n      mload(0x40)\n      dup1\n      dup4\n      sub\n      dup2\n      dup6\n      dup9\n      dup9\n      call\n      swap4\n      pop\n      pop\n      pop\n      pop\n      iszero\n      dup1\n      iszero\n      tag_94\n      jumpi\n      returndatacopy(0x00, 0x00, returndatasize)\n      revert(0x00, returndatasize)\n    tag_94:\n      pop\n        /* \"beggingcontract.sol\":2351:2356  owner */\n      0x00\n      0x00\n      swap1\n      sload\n      swap1\n      0x0100\n      exp\n      swap1\n      div\n      0xffffffffffffffffffffffffffffffffffffffff\n      and\n        /* \"beggingcontract.sol\":2340:2366  Withdrawal(owner, balance) */\n      0xffffffffffffffffffffffffffffffffffffffff\n      and\n      0x7fcf532c15f0a6db0bd6d0e038bea71d30d808c7d98cb3bf7268a95bf5081b65\n        /* \"beggingcontract.sol\":2358:2365  balance */\n      dup3\n        /* \"beggingcontract.sol\":2340:2366  Withdrawal(owner, balance) */\n      mload(0x40)\n      tag_95\n      swap2\n      swap1\n      tag_23\n      jump\t// in\n    tag_95:\n      mload(0x40)\n      dup1\n      swap2\n      sub\n      swap1\n      log2\n        /* \"beggingcontract.sol\":2092:2373  {... */\n      pop\n        /* \"beggingcontract.sol\":2055:2373  function withdraw() public onlyOwner {... */\n      jump\t// out\n        /* \"beggingcontract.sol\":2424:2530  function getDonation(address donor) public view returns (uint256) {... */\n    tag_35:\n        /* \"beggingcontract.sol\":2481:2488  uint256 */\n      0x00\n        /* \"beggingcontract.sol\":2507:2516  donations */\n      0x01\n        /* \"beggingcontract.sol\":2507:2523  donations[donor] */\n      0x00\n        /* \"beggingcontract.sol\":2517:2522  donor */\n      dup4\n        /* \"beggingcontract.sol\":2507:2523  donations[donor] */\n      0xffffffffffffffffffffffffffffffffffffffff\n      and\n      0xffffffffffffffffffffffffffffffffffffffff\n      and\n      dup2\n      mstore\n      0x20\n      add\n      swap1\n      dup2\n      mstore\n      0x20\n      add\n      0x00\n      keccak256\n      sload\n        /* \"beggingcontract.sol\":2500:2523  return donations[donor] */\n      swap1\n      pop\n        /* \"beggingcontract.sol\":2424:2530  function getDonation(address donor) public view returns (uint256) {... */\n      swap2\n      swap1\n      pop\n      jump\t// out\n        /* \"beggingcontract.sol\":2849:2946  function getAllDonators() public view returns (address[] memory) {... */\n    tag_39:\n        /* \"beggingcontract.sol\":2896:2912  address[] memory */\n      0x60\n        /* \"beggingcontract.sol\":2931:2939  donators */\n      0x02\n        /* \"beggingcontract.sol\":2924:2939  return donators */\n      dup1\n      sload\n      dup1\n      0x20\n      mul\n      0x20\n      add\n      mload(0x40)\n      swap1\n      dup2\n      add\n      0x40\n      mstore\n      dup1\n      swap3\n      swap2\n      swap1\n      dup2\n      dup2\n      mstore\n      0x20\n      add\n      dup3\n      dup1\n      sload\n      dup1\n      iszero\n      tag_98\n      jumpi\n      0x20\n      mul\n      dup3\n      add\n      swap2\n      swap1\n      0x00\n      mstore\n      keccak256(0x00, 0x20)\n      swap1\n    tag_99:\n      dup2\n      0x00\n      swap1\n      sload\n      swap1\n      0x0100\n      exp\n      swap1\n      div\n      0xffffffffffffffffffffffffffffffffffffffff\n      and\n      0xffffffffffffffffffffffffffffffffffffffff\n      and\n      dup2\n      mstore\n      0x20\n      add\n      swap1\n      0x01\n      add\n      swap1\n      dup1\n      dup4\n      gt\n      tag_99\n      jumpi\n    tag_98:\n      pop\n      pop\n      pop\n      pop\n      pop\n      swap1\n      pop\n        /* \"beggingcontract.sol\":2849:2946  function getAllDonators() public view returns (address[] memory) {... */\n      swap1\n      jump\t// out\n        /* \"beggingcontract.sol\":112:132  address public owner */\n    tag_44:\n      0x00\n      0x00\n      swap1\n      sload\n      swap1\n      0x0100\n      exp\n      swap1\n      div\n      0xffffffffffffffffffffffffffffffffffffffff\n      and\n      dup2\n      jump\t// out\n        /* \"beggingcontract.sol\":2708:2804  function getDonatorCount() public view returns (uint256) {... */\n    tag_49:\n        /* \"beggingcontract.sol\":2756:2763  uint256 */\n      0x00\n        /* \"beggingcontract.sol\":2782:2790  donators */\n      0x02\n        /* \"beggingcontract.sol\":2782:2797  donators.length */\n      dup1\n      sload\n      swap1\n      pop\n        /* \"beggingcontract.sol\":2775:2797  return donators.length */\n      swap1\n      pop\n        /* \"beggingcontract.sol\":2708:2804  function getDonatorCount() public view returns (uint256) {... */\n      swap1\n      jump\t// out\n        /* \"beggingcontract.sol\":277:302  address[] public donators */\n    tag_55:\n      0x02\n      dup2\n      dup2\n      sload\n      dup2\n      lt\n      tag_101\n      jumpi\n      0x00\n      dup1\n      revert\n    tag_101:\n      swap1\n      0x00\n      mstore\n      keccak256(0x00, 0x20)\n      add\n      0x00\n      swap2\n      pop\n      sload\n      swap1\n      0x0100\n      exp\n      swap1\n      div\n      0xffffffffffffffffffffffffffffffffffffffff\n      and\n      dup2\n      jump\t// out\n        /* \"beggingcontract.sol\":187:231  mapping(address => uint256) public donations */\n    tag_60:\n      mstore(0x20, 0x01)\n      dup1\n      0x00\n      mstore\n      keccak256(0x00, 0x40)\n      0x00\n      swap2\n      pop\n      swap1\n      pop\n      sload\n      dup2\n      jump\t// out\n        /* \"beggingcontract.sol\":4142:4510  function getTopDonors(uint256 n) external view returns (Donor[] memory) {... */\n    tag_66:\n        /* \"beggingcontract.sol\":4198:4212  Donor[] memory */\n      0x60\n        /* \"beggingcontract.sol\":4236:4237  0 */\n      0x00\n        /* \"beggingcontract.sol\":4232:4233  n */\n      dup3\n        /* \"beggingcontract.sol\":4232:4237  n > 0 */\n      gt\n        /* \"beggingcontract.sol\":4224:4266  require(n > 0, \"n must be greater than 0\") */\n      tag_104\n      jumpi\n      mload(0x40)\n      0x08c379a000000000000000000000000000000000000000000000000000000000\n      dup2\n      mstore\n      0x04\n      add\n      tag_105\n      swap1\n      tag_106\n      jump\t// in\n    tag_105:\n      mload(0x40)\n      dup1\n      swap2\n      sub\n      swap1\n      revert\n    tag_104:\n        /* \"beggingcontract.sol\":4276:4288  uint256 size */\n      0x00\n        /* \"beggingcontract.sol\":4295:4304  topDonors */\n      0x03\n        /* \"beggingcontract.sol\":4295:4311  topDonors.length */\n      dup1\n      sload\n      swap1\n      pop\n        /* \"beggingcontract.sol\":4291:4292  n */\n      dup4\n        /* \"beggingcontract.sol\":4291:4311  n > topDonors.length */\n      gt\n        /* \"beggingcontract.sol\":4291:4334  n > topDonors.length ? topDonors.length : n */\n      tag_107\n      jumpi\n        /* \"beggingcontract.sol\":4333:4334  n */\n      dup3\n        /* \"beggingcontract.sol\":4291:4334  n > topDonors.length ? topDonors.length : n */\n      jump(tag_108)\n    tag_107:\n        /* \"beggingcontract.sol\":4314:4323  topDonors */\n      0x03\n        /* \"beggingcontract.sol\":4314:4330  topDonors.length */\n      dup1\n      sload\n      swap1\n      pop\n        /* \"beggingcontract.sol\":4291:4334  n > topDonors.length ? topDonors.length : n */\n    tag_108:\n        /* \"beggingcontract.sol\":4276:4334  uint256 size = n > topDonors.length ? topDonors.length : n */\n      swap1\n      pop\n        /* \"beggingcontract.sol\":4344:4365  Donor[] memory result */\n      0x00\n        /* \"beggingcontract.sol\":4380:4384  size */\n      dup2\n        /* \"beggingcontract.sol\":4368:4385  new Donor[](size) */\n      0xffffffffffffffff\n      dup2\n      gt\n      iszero\n      tag_109\n      jumpi\n      tag_110\n      tag_111\n      jump\t// in\n    tag_110:\n    tag_109:\n      mload(0x40)\n      swap1\n      dup1\n      dup3\n      mstore\n      dup1\n      0x20\n      mul\n      0x20\n      add\n      dup3\n      add\n      0x40\n      mstore\n      dup1\n      iszero\n      tag_112\n      jumpi\n      dup2\n      0x20\n      add\n    tag_113:\n      tag_114\n      tag_115\n      jump\t// in\n    tag_114:\n      dup2\n      mstore\n      0x20\n      add\n      swap1\n      0x01\n      swap1\n      sub\n      swap1\n      dup2\n      tag_113\n      jumpi\n      swap1\n      pop\n    tag_112:\n      pop\n        /* \"beggingcontract.sol\":4344:4385  Donor[] memory result = new Donor[](size) */\n      swap1\n      pop\n        /* \"beggingcontract.sol\":4401:4410  uint256 i */\n      0x00\n        /* \"beggingcontract.sol\":4413:4414  0 */\n      0x00\n        /* \"beggingcontract.sol\":4401:4414  uint256 i = 0 */\n      swap1\n      pop\n        /* \"beggingcontract.sol\":4396:4480  for (uint256 i = 0; i < size; i++) {... */\n    tag_116:\n        /* \"beggingcontract.sol\":4420:4424  size */\n      dup3\n        /* \"beggingcontract.sol\":4416:4417  i */\n      dup2\n        /* \"beggingcontract.sol\":4416:4424  i < size */\n      lt\n        /* \"beggingcontract.sol\":4396:4480  for (uint256 i = 0; i < size; i++) {... */\n      iszero\n      tag_117\n      jumpi\n        /* \"beggingcontract.sol\":4457:4466  topDonors */\n      0x03\n        /* \"beggingcontract.sol\":4467:4468  i */\n      dup2\n        /* \"beggingcontract.sol\":4457:4469  topDonors[i] */\n      dup2\n      sload\n      dup2\n      lt\n      tag_119\n      jumpi\n      tag_120\n      tag_121\n      jump\t// in\n    tag_120:\n    tag_119:\n      swap1\n      0x00\n      mstore\n      keccak256(0x00, 0x20)\n      swap1\n      0x02\n      mul\n      add\n        /* \"beggingcontract.sol\":4445:4469  result[i] = topDonors[i] */\n      mload(0x40)\n      dup1\n      0x40\n      add\n      0x40\n      mstore\n      swap1\n      dup2\n      0x00\n      dup3\n      add\n      0x00\n      swap1\n      sload\n      swap1\n      0x0100\n      exp\n      swap1\n      div\n      0xffffffffffffffffffffffffffffffffffffffff\n      and\n      0xffffffffffffffffffffffffffffffffffffffff\n      and\n      0xffffffffffffffffffffffffffffffffffffffff\n      and\n      dup2\n      mstore\n      0x20\n      add\n      0x01\n      dup3\n      add\n      sload\n      dup2\n      mstore\n      pop\n      pop\n        /* \"beggingcontract.sol\":4445:4451  result */\n      dup3\n        /* \"beggingcontract.sol\":4452:4453  i */\n      dup3\n        /* \"beggingcontract.sol\":4445:4454  result[i] */\n      dup2\n      mload\n      dup2\n      lt\n      tag_123\n      jumpi\n      tag_124\n      tag_121\n      jump\t// in\n    tag_124:\n    tag_123:\n      0x20\n      mul\n      0x20\n      add\n      add\n        /* \"beggingcontract.sol\":4445:4469  result[i] = topDonors[i] */\n      dup2\n      swap1\n      mstore\n      pop\n        /* \"beggingcontract.sol\":4426:4429  i++ */\n      dup1\n      dup1\n      0x01\n      add\n      swap2\n      pop\n      pop\n        /* \"beggingcontract.sol\":4396:4480  for (uint256 i = 0; i < size; i++) {... */\n      jump(tag_116)\n    tag_117:\n      pop\n        /* \"beggingcontract.sol\":4497:4503  result */\n      dup1\n        /* \"beggingcontract.sol\":4490:4503  return result */\n      swap3\n      pop\n      pop\n      pop\n        /* \"beggingcontract.sol\":4142:4510  function getTopDonors(uint256 n) external view returns (Donor[] memory) {... */\n      swap2\n      swap1\n      pop\n      jump\t// out\n        /* \"beggingcontract.sol\":3037:4094  function _updateRanking(address donor, uint256 amount) internal {... */\n    tag_82:\n        /* \"beggingcontract.sol\":3167:3176  uint256 i */\n      0x00\n        /* \"beggingcontract.sol\":3179:3180  0 */\n      0x00\n        /* \"beggingcontract.sol\":3167:3180  uint256 i = 0 */\n      swap1\n      pop\n        /* \"beggingcontract.sol\":3162:3400  for (uint256 i = 0; i < topDonors.length; i++) {... */\n    tag_126:\n        /* \"beggingcontract.sol\":3186:3195  topDonors */\n      0x03\n        /* \"beggingcontract.sol\":3186:3202  topDonors.length */\n      dup1\n      sload\n      swap1\n      pop\n        /* \"beggingcontract.sol\":3182:3183  i */\n      dup2\n        /* \"beggingcontract.sol\":3182:3202  i < topDonors.length */\n      lt\n        /* \"beggingcontract.sol\":3162:3400  for (uint256 i = 0; i < topDonors.length; i++) {... */\n      iszero\n      tag_127\n      jumpi\n        /* \"beggingcontract.sol\":3248:3253  donor */\n      dup3\n        /* \"beggingcontract.sol\":3227:3253  topDonors[i].addr == donor */\n      0xffffffffffffffffffffffffffffffffffffffff\n      and\n        /* \"beggingcontract.sol\":3227:3236  topDonors */\n      0x03\n        /* \"beggingcontract.sol\":3237:3238  i */\n      dup3\n        /* \"beggingcontract.sol\":3227:3239  topDonors[i] */\n      dup2\n      sload\n      dup2\n      lt\n      tag_129\n      jumpi\n      tag_130\n      tag_121\n      jump\t// in\n    tag_130:\n    tag_129:\n      swap1\n      0x00\n      mstore\n      keccak256(0x00, 0x20)\n      swap1\n      0x02\n      mul\n      add\n        /* \"beggingcontract.sol\":3227:3244  topDonors[i].addr */\n      0x00\n      add\n      0x00\n      swap1\n      sload\n      swap1\n      0x0100\n      exp\n      swap1\n      div\n      0xffffffffffffffffffffffffffffffffffffffff\n      and\n        /* \"beggingcontract.sol\":3227:3253  topDonors[i].addr == donor */\n      0xffffffffffffffffffffffffffffffffffffffff\n      and\n      sub\n        /* \"beggingcontract.sol\":3223:3390  if (topDonors[i].addr == donor) {... */\n      tag_132\n      jumpi\n        /* \"beggingcontract.sol\":3288:3297  topDonors */\n      0x03\n        /* \"beggingcontract.sol\":3317:3318  1 */\n      0x01\n        /* \"beggingcontract.sol\":3298:3307  topDonors */\n      0x03\n        /* \"beggingcontract.sol\":3298:3314  topDonors.length */\n      dup1\n      sload\n      swap1\n      pop\n        /* \"beggingcontract.sol\":3298:3318  topDonors.length - 1 */\n      tag_133\n      swap2\n      swap1\n      tag_134\n      jump\t// in\n    tag_133:\n        /* \"beggingcontract.sol\":3288:3319  topDonors[topDonors.length - 1] */\n      dup2\n      sload\n      dup2\n      lt\n      tag_135\n      jumpi\n      tag_136\n      tag_121\n      jump\t// in\n    tag_136:\n    tag_135:\n      swap1\n      0x00\n      mstore\n      keccak256(0x00, 0x20)\n      swap1\n      0x02\n      mul\n      add\n        /* \"beggingcontract.sol\":3273:3282  topDonors */\n      0x03\n        /* \"beggingcontract.sol\":3283:3284  i */\n      dup3\n        /* \"beggingcontract.sol\":3273:3285  topDonors[i] */\n      dup2\n      sload\n      dup2\n      lt\n      tag_138\n      jumpi\n      tag_139\n      tag_121\n      jump\t// in\n    tag_139:\n    tag_138:\n      swap1\n      0x00\n      mstore\n      keccak256(0x00, 0x20)\n      swap1\n      0x02\n      mul\n      add\n        /* \"beggingcontract.sol\":3273:3319  topDonors[i] = topDonors[topDonors.length - 1] */\n      0x00\n      dup3\n      add\n      0x00\n      swap1\n      sload\n      swap1\n      0x0100\n      exp\n      swap1\n      div\n      0xffffffffffffffffffffffffffffffffffffffff\n      and\n      dup2\n      0x00\n      add\n      exp(0x0100, 0x00)\n      dup2\n      sload\n      dup2\n      0xffffffffffffffffffffffffffffffffffffffff\n      mul\n      not\n      and\n      swap1\n      dup4\n      0xffffffffffffffffffffffffffffffffffffffff\n      and\n      mul\n      or\n      swap1\n      sstore\n      pop\n      0x01\n      dup3\n      add\n      sload\n      dup2\n      0x01\n      add\n      sstore\n      swap1\n      pop\n      pop\n        /* \"beggingcontract.sol\":3337:3346  topDonors */\n      0x03\n        /* \"beggingcontract.sol\":3337:3352  topDonors.pop() */\n      dup1\n      sload\n      dup1\n      tag_141\n      jumpi\n      tag_142\n      tag_143\n      jump\t// in\n    tag_142:\n    tag_141:\n      0x01\n      swap1\n      sub\n      dup2\n      dup2\n      swap1\n      0x00\n      mstore\n      keccak256(0x00, 0x20)\n      swap1\n      0x02\n      mul\n      add\n      0x00\n      0x00\n      dup3\n      add\n      exp(0x0100, 0x00)\n      dup2\n      sload\n      swap1\n      0xffffffffffffffffffffffffffffffffffffffff\n      mul\n      not\n      and\n      swap1\n      sstore\n      0x01\n      dup3\n      add\n      0x00\n      swap1\n      sstore\n      pop\n      pop\n      swap1\n      sstore\n        /* \"beggingcontract.sol\":3370:3375  break */\n      jump(tag_127)\n        /* \"beggingcontract.sol\":3223:3390  if (topDonors[i].addr == donor) {... */\n    tag_132:\n        /* \"beggingcontract.sol\":3204:3207  i++ */\n      dup1\n      dup1\n      0x01\n      add\n      swap2\n      pop\n      pop\n        /* \"beggingcontract.sol\":3162:3400  for (uint256 i = 0; i < topDonors.length; i++) {... */\n      jump(tag_126)\n    tag_127:\n      pop\n        /* \"beggingcontract.sol\":3437:3446  topDonors */\n      0x03\n        /* \"beggingcontract.sol\":3452:3472  Donor(donor, amount) */\n      mload(0x40)\n      dup1\n      0x40\n      add\n      0x40\n      mstore\n      dup1\n        /* \"beggingcontract.sol\":3458:3463  donor */\n      dup5\n        /* \"beggingcontract.sol\":3452:3472  Donor(donor, amount) */\n      0xffffffffffffffffffffffffffffffffffffffff\n      and\n      dup2\n      mstore\n      0x20\n      add\n        /* \"beggingcontract.sol\":3465:3471  amount */\n      dup4\n        /* \"beggingcontract.sol\":3452:3472  Donor(donor, amount) */\n      dup2\n      mstore\n      pop\n        /* \"beggingcontract.sol\":3437:3473  topDonors.push(Donor(donor, amount)) */\n      swap1\n      dup1\n      0x01\n      dup2\n      sload\n      add\n      dup1\n      dup3\n      sstore\n      dup1\n      swap2\n      pop\n      pop\n      0x01\n      swap1\n      sub\n      swap1\n      0x00\n      mstore\n      keccak256(0x00, 0x20)\n      swap1\n      0x02\n      mul\n      add\n      0x00\n      swap1\n      swap2\n      swap1\n      swap2\n      swap1\n      swap2\n      pop\n      0x00\n      dup3\n      add\n      mload\n      dup2\n      0x00\n      add\n      exp(0x0100, 0x00)\n      dup2\n      sload\n      dup2\n      0xffffffffffffffffffffffffffffffffffffffff\n      mul\n      not\n      and\n      swap1\n      dup4\n      0xffffffffffffffffffffffffffffffffffffffff\n      and\n      mul\n      or\n      swap1\n      sstore\n      pop\n      0x20\n      dup3\n      add\n      mload\n      dup2\n      0x01\n      add\n      sstore\n      pop\n      pop\n        /* \"beggingcontract.sol\":3585:3594  uint256 i */\n      0x00\n        /* \"beggingcontract.sol\":3597:3598  0 */\n      0x00\n        /* \"beggingcontract.sol\":3585:3598  uint256 i = 0 */\n      swap1\n      pop\n        /* \"beggingcontract.sol\":3580:3964  for (uint256 i = 0; i < topDonors.length - 1; i++) {... */\n    tag_146:\n        /* \"beggingcontract.sol\":3623:3624  1 */\n      0x01\n        /* \"beggingcontract.sol\":3604:3613  topDonors */\n      0x03\n        /* \"beggingcontract.sol\":3604:3620  topDonors.length */\n      dup1\n      sload\n      swap1\n      pop\n        /* \"beggingcontract.sol\":3604:3624  topDonors.length - 1 */\n      tag_149\n      swap2\n      swap1\n      tag_134\n      jump\t// in\n    tag_149:\n        /* \"beggingcontract.sol\":3600:3601  i */\n      dup2\n        /* \"beggingcontract.sol\":3600:3624  i < topDonors.length - 1 */\n      lt\n        /* \"beggingcontract.sol\":3580:3964  for (uint256 i = 0; i < topDonors.length - 1; i++) {... */\n      iszero\n      tag_147\n      jumpi\n        /* \"beggingcontract.sol\":3650:3659  uint256 j */\n      0x00\n        /* \"beggingcontract.sol\":3662:3663  0 */\n      0x00\n        /* \"beggingcontract.sol\":3650:3663  uint256 j = 0 */\n      swap1\n      pop\n        /* \"beggingcontract.sol\":3645:3954  for (uint256 j = 0; j < topDonors.length - i - 1; j++) {... */\n    tag_150:\n        /* \"beggingcontract.sol\":3692:3693  1 */\n      0x01\n        /* \"beggingcontract.sol\":3688:3689  i */\n      dup3\n        /* \"beggingcontract.sol\":3669:3678  topDonors */\n      0x03\n        /* \"beggingcontract.sol\":3669:3685  topDonors.length */\n      dup1\n      sload\n      swap1\n      pop\n        /* \"beggingcontract.sol\":3669:3689  topDonors.length - i */\n      tag_153\n      swap2\n      swap1\n      tag_134\n      jump\t// in\n    tag_153:\n        /* \"beggingcontract.sol\":3669:3693  topDonors.length - i - 1 */\n      tag_154\n      swap2\n      swap1\n      tag_134\n      jump\t// in\n    tag_154:\n        /* \"beggingcontract.sol\":3665:3666  j */\n      dup2\n        /* \"beggingcontract.sol\":3665:3693  j < topDonors.length - i - 1 */\n      lt\n        /* \"beggingcontract.sol\":3645:3954  for (uint256 j = 0; j < topDonors.length - i - 1; j++) {... */\n      iszero\n      tag_151\n      jumpi\n        /* \"beggingcontract.sol\":3744:3753  topDonors */\n      0x03\n        /* \"beggingcontract.sol\":3758:3759  1 */\n      0x01\n        /* \"beggingcontract.sol\":3754:3755  j */\n      dup3\n        /* \"beggingcontract.sol\":3754:3759  j + 1 */\n      tag_155\n      swap2\n      swap1\n      tag_80\n      jump\t// in\n    tag_155:\n        /* \"beggingcontract.sol\":3744:3760  topDonors[j + 1] */\n      dup2\n      sload\n      dup2\n      lt\n      tag_156\n      jumpi\n      tag_157\n      tag_121\n      jump\t// in\n    tag_157:\n    tag_156:\n      swap1\n      0x00\n      mstore\n      keccak256(0x00, 0x20)\n      swap1\n      0x02\n      mul\n      add\n        /* \"beggingcontract.sol\":3744:3767  topDonors[j + 1].amount */\n      0x01\n      add\n      sload\n        /* \"beggingcontract.sol\":3722:3731  topDonors */\n      0x03\n        /* \"beggingcontract.sol\":3732:3733  j */\n      dup3\n        /* \"beggingcontract.sol\":3722:3734  topDonors[j] */\n      dup2\n      sload\n      dup2\n      lt\n      tag_159\n      jumpi\n      tag_160\n      tag_121\n      jump\t// in\n    tag_160:\n    tag_159:\n      swap1\n      0x00\n      mstore\n      keccak256(0x00, 0x20)\n      swap1\n      0x02\n      mul\n      add\n        /* \"beggingcontract.sol\":3722:3741  topDonors[j].amount */\n      0x01\n      add\n      sload\n        /* \"beggingcontract.sol\":3722:3767  topDonors[j].amount < topDonors[j + 1].amount */\n      lt\n        /* \"beggingcontract.sol\":3718:3940  if (topDonors[j].amount < topDonors[j + 1].amount) {... */\n      iszero\n      tag_162\n      jumpi\n        /* \"beggingcontract.sol\":3791:3808  Donor memory temp */\n      0x00\n        /* \"beggingcontract.sol\":3811:3820  topDonors */\n      0x03\n        /* \"beggingcontract.sol\":3821:3822  j */\n      dup3\n        /* \"beggingcontract.sol\":3811:3823  topDonors[j] */\n      dup2\n      sload\n      dup2\n      lt\n      tag_163\n      jumpi\n      tag_164\n      tag_121\n      jump\t// in\n    tag_164:\n    tag_163:\n      swap1\n      0x00\n      mstore\n      keccak256(0x00, 0x20)\n      swap1\n      0x02\n      mul\n      add\n        /* \"beggingcontract.sol\":3791:3823  Donor memory temp = topDonors[j] */\n      mload(0x40)\n      dup1\n      0x40\n      add\n      0x40\n      mstore\n      swap1\n      dup2\n      0x00\n      dup3\n      add\n      0x00\n      swap1\n      sload\n      swap1\n      0x0100\n      exp\n      swap1\n      div\n      0xffffffffffffffffffffffffffffffffffffffff\n      and\n      0xffffffffffffffffffffffffffffffffffffffff\n      and\n      0xffffffffffffffffffffffffffffffffffffffff\n      and\n      dup2\n      mstore\n      0x20\n      add\n      0x01\n      dup3\n      add\n      sload\n      dup2\n      mstore\n      pop\n      pop\n      swap1\n      pop\n        /* \"beggingcontract.sol\":3860:3869  topDonors */\n      0x03\n        /* \"beggingcontract.sol\":3874:3875  1 */\n      0x01\n        /* \"beggingcontract.sol\":3870:3871  j */\n      dup4\n        /* \"beggingcontract.sol\":3870:3875  j + 1 */\n      tag_166\n      swap2\n      swap1\n      tag_80\n      jump\t// in\n    tag_166:\n        /* \"beggingcontract.sol\":3860:3876  topDonors[j + 1] */\n      dup2\n      sload\n      dup2\n      lt\n      tag_167\n      jumpi\n      tag_168\n      tag_121\n      jump\t// in\n    tag_168:\n    tag_167:\n      swap1\n      0x00\n      mstore\n      keccak256(0x00, 0x20)\n      swap1\n      0x02\n      mul\n      add\n        /* \"beggingcontract.sol\":3845:3854  topDonors */\n      0x03\n        /* \"beggingcontract.sol\":3855:3856  j */\n      dup4\n        /* \"beggingcontract.sol\":3845:3857  topDonors[j] */\n      dup2\n      sload\n      dup2\n      lt\n      tag_170\n      jumpi\n      tag_171\n      tag_121\n      jump\t// in\n    tag_171:\n    tag_170:\n      swap1\n      0x00\n      mstore\n      keccak256(0x00, 0x20)\n      swap1\n      0x02\n      mul\n      add\n        /* \"beggingcontract.sol\":3845:3876  topDonors[j] = topDonors[j + 1] */\n      0x00\n      dup3\n      add\n      0x00\n      swap1\n      sload\n      swap1\n      0x0100\n      exp\n      swap1\n      div\n      0xffffffffffffffffffffffffffffffffffffffff\n      and\n      dup2\n      0x00\n      add\n      exp(0x0100, 0x00)\n      dup2\n      sload\n      dup2\n      0xffffffffffffffffffffffffffffffffffffffff\n      mul\n      not\n      and\n      swap1\n      dup4\n      0xffffffffffffffffffffffffffffffffffffffff\n      and\n      mul\n      or\n      swap1\n      sstore\n      pop\n      0x01\n      dup3\n      add\n      sload\n      dup2\n      0x01\n      add\n      sstore\n      swap1\n      pop\n      pop\n        /* \"beggingcontract.sol\":3917:3921  temp */\n      dup1\n        /* \"beggingcontract.sol\":3898:3907  topDonors */\n      0x03\n        /* \"beggingcontract.sol\":3912:3913  1 */\n      0x01\n        /* \"beggingcontract.sol\":3908:3909  j */\n      dup5\n        /* \"beggingcontract.sol\":3908:3913  j + 1 */\n      tag_173\n      swap2\n      swap1\n      tag_80\n      jump\t// in\n    tag_173:\n        /* \"beggingcontract.sol\":3898:3914  topDonors[j + 1] */\n      dup2\n      sload\n      dup2\n      lt\n      tag_174\n      jumpi\n      tag_175\n      tag_121\n      jump\t// in\n    tag_175:\n    tag_174:\n      swap1\n      0x00\n      mstore\n      keccak256(0x00, 0x20)\n      swap1\n      0x02\n      mul\n      add\n        /* \"beggingcontract.sol\":3898:3921  topDonors[j + 1] = temp */\n      0x00\n      dup3\n      add\n      mload\n      dup2\n      0x00\n      add\n      exp(0x0100, 0x00)\n      dup2\n      sload\n      dup2\n      0xffffffffffffffffffffffffffffffffffffffff\n      mul\n      not\n      and\n      swap1\n      dup4\n      0xffffffffffffffffffffffffffffffffffffffff\n      and\n      mul\n      or\n      swap1\n      sstore\n      pop\n      0x20\n      dup3\n      add\n      mload\n      dup2\n      0x01\n      add\n      sstore\n      swap1\n      pop\n      pop\n        /* \"beggingcontract.sol\":3769:3940  {... */\n      pop\n        /* \"beggingcontract.sol\":3718:3940  if (topDonors[j].amount < topDonors[j + 1].amount) {... */\n    tag_162:\n        /* \"beggingcontract.sol\":3695:3698  j++ */\n      dup1\n      dup1\n      0x01\n      add\n      swap2\n      pop\n      pop\n        /* \"beggingcontract.sol\":3645:3954  for (uint256 j = 0; j < topDonors.length - i - 1; j++) {... */\n      jump(tag_150)\n    tag_151:\n      pop\n        /* \"beggingcontract.sol\":3626:3629  i++ */\n      dup1\n      dup1\n      0x01\n      add\n      swap2\n      pop\n      pop\n        /* \"beggingcontract.sol\":3580:3964  for (uint256 i = 0; i < topDonors.length - 1; i++) {... */\n      jump(tag_146)\n    tag_147:\n      pop\n        /* \"beggingcontract.sol\":622:625  100 */\n      0x64\n        /* \"beggingcontract.sol\":4011:4020  topDonors */\n      0x03\n        /* \"beggingcontract.sol\":4011:4027  topDonors.length */\n      dup1\n      sload\n      swap1\n      pop\n        /* \"beggingcontract.sol\":4011:4046  topDonors.length > MAX_RANKING_SIZE */\n      gt\n        /* \"beggingcontract.sol\":4007:4088  if (topDonors.length > MAX_RANKING_SIZE) {... */\n      iszero\n      tag_177\n      jumpi\n        /* \"beggingcontract.sol\":4062:4071  topDonors */\n      0x03\n        /* \"beggingcontract.sol\":4062:4077  topDonors.pop() */\n      dup1\n      sload\n      dup1\n      tag_178\n      jumpi\n      tag_179\n      tag_143\n      jump\t// in\n    tag_179:\n    tag_178:\n      0x01\n      swap1\n      sub\n      dup2\n      dup2\n      swap1\n      0x00\n      mstore\n      keccak256(0x00, 0x20)\n      swap1\n      0x02\n      mul\n      add\n      0x00\n      0x00\n      dup3\n      add\n      exp(0x0100, 0x00)\n      dup2\n      sload\n      swap1\n      0xffffffffffffffffffffffffffffffffffffffff\n      mul\n      not\n      and\n      swap1\n      sstore\n      0x01\n      dup3\n      add\n      0x00\n      swap1\n      sstore\n      pop\n      pop\n      swap1\n      sstore\n        /* \"beggingcontract.sol\":4007:4088  if (topDonors.length > MAX_RANKING_SIZE) {... */\n    tag_177:\n        /* \"beggingcontract.sol\":3037:4094  function _updateRanking(address donor, uint256 amount) internal {... */\n      pop\n      pop\n      jump\t// out\n    tag_115:\n      mload(0x40)\n      dup1\n      0x40\n      add\n      0x40\n      mstore\n      dup1\n      and(0xffffffffffffffffffffffffffffffffffffffff, 0x00)\n      dup2\n      mstore\n      0x20\n      add\n      0x00\n      dup2\n      mstore\n      pop\n      swap1\n      jump\t// out\n        /* \"#utility.yul\":7:84   */\n    tag_181:\n        /* \"#utility.yul\":44:51   */\n      0x00\n        /* \"#utility.yul\":73:78   */\n      dup2\n        /* \"#utility.yul\":62:78   */\n      swap1\n      pop\n        /* \"#utility.yul\":7:84   */\n      swap2\n      swap1\n      pop\n      jump\t// out\n        /* \"#utility.yul\":90:208   */\n    tag_182:\n        /* \"#utility.yul\":177:201   */\n      tag_223\n        /* \"#utility.yul\":195:200   */\n      dup2\n        /* \"#utility.yul\":177:201   */\n      tag_181\n      jump\t// in\n    tag_223:\n        /* \"#utility.yul\":172:175   */\n      dup3\n        /* \"#utility.yul\":165:202   */\n      mstore\n        /* \"#utility.yul\":90:208   */\n      pop\n      pop\n      jump\t// out\n        /* \"#utility.yul\":214:436   */\n    tag_23:\n        /* \"#utility.yul\":307:311   */\n      0x00\n        /* \"#utility.yul\":345:347   */\n      0x20\n        /* \"#utility.yul\":334:343   */\n      dup3\n        /* \"#utility.yul\":330:348   */\n      add\n        /* \"#utility.yul\":322:348   */\n      swap1\n      pop\n        /* \"#utility.yul\":358:429   */\n      tag_225\n        /* \"#utility.yul\":426:427   */\n      0x00\n        /* \"#utility.yul\":415:424   */\n      dup4\n        /* \"#utility.yul\":411:428   */\n      add\n        /* \"#utility.yul\":402:408   */\n      dup5\n        /* \"#utility.yul\":358:429   */\n      tag_182\n      jump\t// in\n    tag_225:\n        /* \"#utility.yul\":214:436   */\n      swap3\n      swap2\n      pop\n      pop\n      jump\t// out\n        /* \"#utility.yul\":523:640   */\n    tag_184:\n        /* \"#utility.yul\":632:633   */\n      0x00\n        /* \"#utility.yul\":629:630   */\n      0x00\n        /* \"#utility.yul\":622:634   */\n      revert\n        /* \"#utility.yul\":769:895   */\n    tag_186:\n        /* \"#utility.yul\":806:813   */\n      0x00\n        /* \"#utility.yul\":846:888   */\n      0xffffffffffffffffffffffffffffffffffffffff\n        /* \"#utility.yul\":839:844   */\n      dup3\n        /* \"#utility.yul\":835:889   */\n      and\n        /* \"#utility.yul\":824:889   */\n      swap1\n      pop\n        /* \"#utility.yul\":769:895   */\n      swap2\n      swap1\n      pop\n      jump\t// out\n        /* \"#utility.yul\":901:997   */\n    tag_187:\n        /* \"#utility.yul\":938:945   */\n      0x00\n        /* \"#utility.yul\":967:991   */\n      tag_231\n        /* \"#utility.yul\":985:990   */\n      dup3\n        /* \"#utility.yul\":967:991   */\n      tag_186\n      jump\t// in\n    tag_231:\n        /* \"#utility.yul\":956:991   */\n      swap1\n      pop\n        /* \"#utility.yul\":901:997   */\n      swap2\n      swap1\n      pop\n      jump\t// out\n        /* \"#utility.yul\":1003:1125   */\n    tag_188:\n        /* \"#utility.yul\":1076:1100   */\n      tag_233\n        /* \"#utility.yul\":1094:1099   */\n      dup2\n        /* \"#utility.yul\":1076:1100   */\n      tag_187\n      jump\t// in\n    tag_233:\n        /* \"#utility.yul\":1069:1074   */\n      dup2\n        /* \"#utility.yul\":1066:1101   */\n      eq\n        /* \"#utility.yul\":1056:1119   */\n      tag_234\n      jumpi\n        /* \"#utility.yul\":1115:1116   */\n      0x00\n        /* \"#utility.yul\":1112:1113   */\n      0x00\n        /* \"#utility.yul\":1105:1117   */\n      revert\n        /* \"#utility.yul\":1056:1119   */\n    tag_234:\n        /* \"#utility.yul\":1003:1125   */\n      pop\n      jump\t// out\n        /* \"#utility.yul\":1131:1270   */\n    tag_189:\n        /* \"#utility.yul\":1177:1182   */\n      0x00\n        /* \"#utility.yul\":1215:1221   */\n      dup2\n        /* \"#utility.yul\":1202:1222   */\n      calldataload\n        /* \"#utility.yul\":1193:1222   */\n      swap1\n      pop\n        /* \"#utility.yul\":1231:1264   */\n      tag_236\n        /* \"#utility.yul\":1258:1263   */\n      dup2\n        /* \"#utility.yul\":1231:1264   */\n      tag_188\n      jump\t// in\n    tag_236:\n        /* \"#utility.yul\":1131:1270   */\n      swap3\n      swap2\n      pop\n      pop\n      jump\t// out\n        /* \"#utility.yul\":1276:1605   */\n    tag_34:\n        /* \"#utility.yul\":1335:1341   */\n      0x00\n        /* \"#utility.yul\":1384:1386   */\n      0x20\n        /* \"#utility.yul\":1372:1381   */\n      dup3\n        /* \"#utility.yul\":1363:1370   */\n      dup5\n        /* \"#utility.yul\":1359:1382   */\n      sub\n        /* \"#utility.yul\":1355:1387   */\n      slt\n        /* \"#utility.yul\":1352:1471   */\n      iszero\n      tag_238\n      jumpi\n        /* \"#utility.yul\":1390:1469   */\n      tag_239\n      tag_184\n      jump\t// in\n    tag_239:\n        /* \"#utility.yul\":1352:1471   */\n    tag_238:\n        /* \"#utility.yul\":1510:1511   */\n      0x00\n        /* \"#utility.yul\":1535:1588   */\n      tag_240\n        /* \"#utility.yul\":1580:1587   */\n      dup5\n        /* \"#utility.yul\":1571:1577   */\n      dup3\n        /* \"#utility.yul\":1560:1569   */\n      dup6\n        /* \"#utility.yul\":1556:1578   */\n      add\n        /* \"#utility.yul\":1535:1588   */\n      tag_189\n      jump\t// in\n    tag_240:\n        /* \"#utility.yul\":1525:1588   */\n      swap2\n      pop\n        /* \"#utility.yul\":1481:1598   */\n      pop\n        /* \"#utility.yul\":1276:1605   */\n      swap3\n      swap2\n      pop\n      pop\n      jump\t// out\n        /* \"#utility.yul\":1611:1725   */\n    tag_190:\n        /* \"#utility.yul\":1678:1684   */\n      0x00\n        /* \"#utility.yul\":1712:1717   */\n      dup2\n        /* \"#utility.yul\":1706:1718   */\n      mload\n        /* \"#utility.yul\":1696:1718   */\n      swap1\n      pop\n        /* \"#utility.yul\":1611:1725   */\n      swap2\n      swap1\n      pop\n      jump\t// out\n        /* \"#utility.yul\":1731:1915   */\n    tag_191:\n        /* \"#utility.yul\":1830:1841   */\n      0x00\n        /* \"#utility.yul\":1864:1870   */\n      dup3\n        /* \"#utility.yul\":1859:1862   */\n      dup3\n        /* \"#utility.yul\":1852:1871   */\n      mstore\n        /* \"#utility.yul\":1904:1908   */\n      0x20\n        /* \"#utility.yul\":1899:1902   */\n      dup3\n        /* \"#utility.yul\":1895:1909   */\n      add\n        /* \"#utility.yul\":1880:1909   */\n      swap1\n      pop\n        /* \"#utility.yul\":1731:1915   */\n      swap3\n      swap2\n      pop\n      pop\n      jump\t// out\n        /* \"#utility.yul\":1921:2053   */\n    tag_192:\n        /* \"#utility.yul\":1988:1992   */\n      0x00\n        /* \"#utility.yul\":2011:2014   */\n      dup2\n        /* \"#utility.yul\":2003:2014   */\n      swap1\n      pop\n        /* \"#utility.yul\":2041:2045   */\n      0x20\n        /* \"#utility.yul\":2036:2039   */\n      dup3\n        /* \"#utility.yul\":2032:2046   */\n      add\n        /* \"#utility.yul\":2024:2046   */\n      swap1\n      pop\n        /* \"#utility.yul\":1921:2053   */\n      swap2\n      swap1\n      pop\n      jump\t// out\n        /* \"#utility.yul\":2059:2167   */\n    tag_193:\n        /* \"#utility.yul\":2136:2160   */\n      tag_245\n        /* \"#utility.yul\":2154:2159   */\n      dup2\n        /* \"#utility.yul\":2136:2160   */\n      tag_187\n      jump\t// in\n    tag_245:\n        /* \"#utility.yul\":2131:2134   */\n      dup3\n        /* \"#utility.yul\":2124:2161   */\n      mstore\n        /* \"#utility.yul\":2059:2167   */\n      pop\n      pop\n      jump\t// out\n        /* \"#utility.yul\":2173:2352   */\n    tag_194:\n        /* \"#utility.yul\":2242:2252   */\n      0x00\n        /* \"#utility.yul\":2263:2309   */\n      tag_247\n        /* \"#utility.yul\":2305:2308   */\n      dup4\n        /* \"#utility.yul\":2297:2303   */\n      dup4\n        /* \"#utility.yul\":2263:2309   */\n      tag_193\n      jump\t// in\n    tag_247:\n        /* \"#utility.yul\":2341:2345   */\n      0x20\n        /* \"#utility.yul\":2336:2339   */\n      dup4\n        /* \"#utility.yul\":2332:2346   */\n      add\n        /* \"#utility.yul\":2318:2346   */\n      swap1\n      pop\n        /* \"#utility.yul\":2173:2352   */\n      swap3\n      swap2\n      pop\n      pop\n      jump\t// out\n        /* \"#utility.yul\":2358:2471   */\n    tag_195:\n        /* \"#utility.yul\":2428:2432   */\n      0x00\n        /* \"#utility.yul\":2460:2464   */\n      0x20\n        /* \"#utility.yul\":2455:2458   */\n      dup3\n        /* \"#utility.yul\":2451:2465   */\n      add\n        /* \"#utility.yul\":2443:2465   */\n      swap1\n      pop\n        /* \"#utility.yul\":2358:2471   */\n      swap2\n      swap1\n      pop\n      jump\t// out\n        /* \"#utility.yul\":2507:3239   */\n    tag_196:\n        /* \"#utility.yul\":2626:2629   */\n      0x00\n        /* \"#utility.yul\":2655:2709   */\n      tag_250\n        /* \"#utility.yul\":2703:2708   */\n      dup3\n        /* \"#utility.yul\":2655:2709   */\n      tag_190\n      jump\t// in\n    tag_250:\n        /* \"#utility.yul\":2725:2811   */\n      tag_251\n        /* \"#utility.yul\":2804:2810   */\n      dup2\n        /* \"#utility.yul\":2799:2802   */\n      dup6\n        /* \"#utility.yul\":2725:2811   */\n      tag_191\n      jump\t// in\n    tag_251:\n        /* \"#utility.yul\":2718:2811   */\n      swap4\n      pop\n        /* \"#utility.yul\":2835:2891   */\n      tag_252\n        /* \"#utility.yul\":2885:2890   */\n      dup4\n        /* \"#utility.yul\":2835:2891   */\n      tag_192\n      jump\t// in\n    tag_252:\n        /* \"#utility.yul\":2914:2921   */\n      dup1\n        /* \"#utility.yul\":2945:2946   */\n      0x00\n        /* \"#utility.yul\":2930:3214   */\n    tag_253:\n        /* \"#utility.yul\":2955:2961   */\n      dup4\n        /* \"#utility.yul\":2952:2953   */\n      dup2\n        /* \"#utility.yul\":2949:2962   */\n      lt\n        /* \"#utility.yul\":2930:3214   */\n      iszero\n      tag_255\n      jumpi\n        /* \"#utility.yul\":3031:3037   */\n      dup2\n        /* \"#utility.yul\":3025:3038   */\n      mload\n        /* \"#utility.yul\":3058:3121   */\n      tag_256\n        /* \"#utility.yul\":3117:3120   */\n      dup9\n        /* \"#utility.yul\":3102:3115   */\n      dup3\n        /* \"#utility.yul\":3058:3121   */\n      tag_194\n      jump\t// in\n    tag_256:\n        /* \"#utility.yul\":3051:3121   */\n      swap8\n      pop\n        /* \"#utility.yul\":3144:3204   */\n      tag_257\n        /* \"#utility.yul\":3197:3203   */\n      dup4\n        /* \"#utility.yul\":3144:3204   */\n      tag_195\n      jump\t// in\n    tag_257:\n        /* \"#utility.yul\":3134:3204   */\n      swap3\n      pop\n        /* \"#utility.yul\":2990:3214   */\n      pop\n        /* \"#utility.yul\":2977:2978   */\n      0x01\n        /* \"#utility.yul\":2974:2975   */\n      dup2\n        /* \"#utility.yul\":2970:2979   */\n      add\n        /* \"#utility.yul\":2965:2979   */\n      swap1\n      pop\n        /* \"#utility.yul\":2930:3214   */\n      jump(tag_253)\n    tag_255:\n        /* \"#utility.yul\":2934:2948   */\n      pop\n        /* \"#utility.yul\":3230:3233   */\n      dup6\n        /* \"#utility.yul\":3223:3233   */\n      swap4\n      pop\n        /* \"#utility.yul\":2631:3239   */\n      pop\n      pop\n      pop\n        /* \"#utility.yul\":2507:3239   */\n      swap3\n      swap2\n      pop\n      pop\n      jump\t// out\n        /* \"#utility.yul\":3245:3618   */\n    tag_41:\n        /* \"#utility.yul\":3388:3392   */\n      0x00\n        /* \"#utility.yul\":3426:3428   */\n      0x20\n        /* \"#utility.yul\":3415:3424   */\n      dup3\n        /* \"#utility.yul\":3411:3429   */\n      add\n        /* \"#utility.yul\":3403:3429   */\n      swap1\n      pop\n        /* \"#utility.yul\":3475:3484   */\n      dup2\n        /* \"#utility.yul\":3469:3473   */\n      dup2\n        /* \"#utility.yul\":3465:3485   */\n      sub\n        /* \"#utility.yul\":3461:3462   */\n      0x00\n        /* \"#utility.yul\":3450:3459   */\n      dup4\n        /* \"#utility.yul\":3446:3463   */\n      add\n        /* \"#utility.yul\":3439:3486   */\n      mstore\n        /* \"#utility.yul\":3503:3611   */\n      tag_259\n        /* \"#utility.yul\":3606:3610   */\n      dup2\n        /* \"#utility.yul\":3597:3603   */\n      dup5\n        /* \"#utility.yul\":3503:3611   */\n      tag_196\n      jump\t// in\n    tag_259:\n        /* \"#utility.yul\":3495:3611   */\n      swap1\n      pop\n        /* \"#utility.yul\":3245:3618   */\n      swap3\n      swap2\n      pop\n      pop\n      jump\t// out\n        /* \"#utility.yul\":3624:3742   */\n    tag_197:\n        /* \"#utility.yul\":3711:3735   */\n      tag_261\n        /* \"#utility.yul\":3729:3734   */\n      dup2\n        /* \"#utility.yul\":3711:3735   */\n      tag_187\n      jump\t// in\n    tag_261:\n        /* \"#utility.yul\":3706:3709   */\n      dup3\n        /* \"#utility.yul\":3699:3736   */\n      mstore\n        /* \"#utility.yul\":3624:3742   */\n      pop\n      pop\n      jump\t// out\n        /* \"#utility.yul\":3748:3970   */\n    tag_46:\n        /* \"#utility.yul\":3841:3845   */\n      0x00\n        /* \"#utility.yul\":3879:3881   */\n      0x20\n        /* \"#utility.yul\":3868:3877   */\n      dup3\n        /* \"#utility.yul\":3864:3882   */\n      add\n        /* \"#utility.yul\":3856:3882   */\n      swap1\n      pop\n        /* \"#utility.yul\":3892:3963   */\n      tag_263\n        /* \"#utility.yul\":3960:3961   */\n      0x00\n        /* \"#utility.yul\":3949:3958   */\n      dup4\n        /* \"#utility.yul\":3945:3962   */\n      add\n        /* \"#utility.yul\":3936:3942   */\n      dup5\n        /* \"#utility.yul\":3892:3963   */\n      tag_197\n      jump\t// in\n    tag_263:\n        /* \"#utility.yul\":3748:3970   */\n      swap3\n      swap2\n      pop\n      pop\n      jump\t// out\n        /* \"#utility.yul\":3976:4098   */\n    tag_198:\n        /* \"#utility.yul\":4049:4073   */\n      tag_265\n        /* \"#utility.yul\":4067:4072   */\n      dup2\n        /* \"#utility.yul\":4049:4073   */\n      tag_181\n      jump\t// in\n    tag_265:\n        /* \"#utility.yul\":4042:4047   */\n      dup2\n        /* \"#utility.yul\":4039:4074   */\n      eq\n        /* \"#utility.yul\":4029:4092   */\n      tag_266\n      jumpi\n        /* \"#utility.yul\":4088:4089   */\n      0x00\n        /* \"#utility.yul\":4085:4086   */\n      0x00\n        /* \"#utility.yul\":4078:4090   */\n      revert\n        /* \"#utility.yul\":4029:4092   */\n    tag_266:\n        /* \"#utility.yul\":3976:4098   */\n      pop\n      jump\t// out\n        /* \"#utility.yul\":4104:4243   */\n    tag_199:\n        /* \"#utility.yul\":4150:4155   */\n      0x00\n        /* \"#utility.yul\":4188:4194   */\n      dup2\n        /* \"#utility.yul\":4175:4195   */\n      calldataload\n        /* \"#utility.yul\":4166:4195   */\n      swap1\n      pop\n        /* \"#utility.yul\":4204:4237   */\n      tag_268\n        /* \"#utility.yul\":4231:4236   */\n      dup2\n        /* \"#utility.yul\":4204:4237   */\n      tag_198\n      jump\t// in\n    tag_268:\n        /* \"#utility.yul\":4104:4243   */\n      swap3\n      swap2\n      pop\n      pop\n      jump\t// out\n        /* \"#utility.yul\":4249:4578   */\n    tag_54:\n        /* \"#utility.yul\":4308:4314   */\n      0x00\n        /* \"#utility.yul\":4357:4359   */\n      0x20\n        /* \"#utility.yul\":4345:4354   */\n      dup3\n        /* \"#utility.yul\":4336:4343   */\n      dup5\n        /* \"#utility.yul\":4332:4355   */\n      sub\n        /* \"#utility.yul\":4328:4360   */\n      slt\n        /* \"#utility.yul\":4325:4444   */\n      iszero\n      tag_270\n      jumpi\n        /* \"#utility.yul\":4363:4442   */\n      tag_271\n      tag_184\n      jump\t// in\n    tag_271:\n        /* \"#utility.yul\":4325:4444   */\n    tag_270:\n        /* \"#utility.yul\":4483:4484   */\n      0x00\n        /* \"#utility.yul\":4508:4561   */\n      tag_272\n        /* \"#utility.yul\":4553:4560   */\n      dup5\n        /* \"#utility.yul\":4544:4550   */\n      dup3\n        /* \"#utility.yul\":4533:4542   */\n      dup6\n        /* \"#utility.yul\":4529:4551   */\n      add\n        /* \"#utility.yul\":4508:4561   */\n      tag_199\n      jump\t// in\n    tag_272:\n        /* \"#utility.yul\":4498:4561   */\n      swap2\n      pop\n        /* \"#utility.yul\":4454:4571   */\n      pop\n        /* \"#utility.yul\":4249:4578   */\n      swap3\n      swap2\n      pop\n      pop\n      jump\t// out\n        /* \"#utility.yul\":4584:4719   */\n    tag_200:\n        /* \"#utility.yul\":4672:4678   */\n      0x00\n        /* \"#utility.yul\":4706:4711   */\n      dup2\n        /* \"#utility.yul\":4700:4712   */\n      mload\n        /* \"#utility.yul\":4690:4712   */\n      swap1\n      pop\n        /* \"#utility.yul\":4584:4719   */\n      swap2\n      swap1\n      pop\n      jump\t// out\n        /* \"#utility.yul\":4725:4930   */\n    tag_201:\n        /* \"#utility.yul\":4845:4856   */\n      0x00\n        /* \"#utility.yul\":4879:4885   */\n      dup3\n        /* \"#utility.yul\":4874:4877   */\n      dup3\n        /* \"#utility.yul\":4867:4886   */\n      mstore\n        /* \"#utility.yul\":4919:4923   */\n      0x20\n        /* \"#utility.yul\":4914:4917   */\n      dup3\n        /* \"#utility.yul\":4910:4924   */\n      add\n        /* \"#utility.yul\":4895:4924   */\n      swap1\n      pop\n        /* \"#utility.yul\":4725:4930   */\n      swap3\n      swap2\n      pop\n      pop\n      jump\t// out\n        /* \"#utility.yul\":4936:5089   */\n    tag_202:\n        /* \"#utility.yul\":5024:5028   */\n      0x00\n        /* \"#utility.yul\":5047:5050   */\n      dup2\n        /* \"#utility.yul\":5039:5050   */\n      swap1\n      pop\n        /* \"#utility.yul\":5077:5081   */\n      0x20\n        /* \"#utility.yul\":5072:5075   */\n      dup3\n        /* \"#utility.yul\":5068:5082   */\n      add\n        /* \"#utility.yul\":5060:5082   */\n      swap1\n      pop\n        /* \"#utility.yul\":4936:5089   */\n      swap2\n      swap1\n      pop\n      jump\t// out\n        /* \"#utility.yul\":5095:5203   */\n    tag_203:\n        /* \"#utility.yul\":5172:5196   */\n      tag_277\n        /* \"#utility.yul\":5190:5195   */\n      dup2\n        /* \"#utility.yul\":5172:5196   */\n      tag_181\n      jump\t// in\n    tag_277:\n        /* \"#utility.yul\":5167:5170   */\n      dup3\n        /* \"#utility.yul\":5160:5197   */\n      mstore\n        /* \"#utility.yul\":5095:5203   */\n      pop\n      pop\n      jump\t// out\n        /* \"#utility.yul\":5277:5768   */\n    tag_204:\n        /* \"#utility.yul\":5406:5410   */\n      0x40\n        /* \"#utility.yul\":5401:5404   */\n      dup3\n        /* \"#utility.yul\":5397:5411   */\n      add\n        /* \"#utility.yul\":5493:5497   */\n      0x00\n        /* \"#utility.yul\":5486:5491   */\n      dup3\n        /* \"#utility.yul\":5482:5498   */\n      add\n        /* \"#utility.yul\":5476:5499   */\n      mload\n        /* \"#utility.yul\":5512:5575   */\n      tag_279\n        /* \"#utility.yul\":5569:5573   */\n      0x00\n        /* \"#utility.yul\":5564:5567   */\n      dup6\n        /* \"#utility.yul\":5560:5574   */\n      add\n        /* \"#utility.yul\":5546:5558   */\n      dup3\n        /* \"#utility.yul\":5512:5575   */\n      tag_193\n      jump\t// in\n    tag_279:\n        /* \"#utility.yul\":5421:5585   */\n      pop\n        /* \"#utility.yul\":5669:5673   */\n      0x20\n        /* \"#utility.yul\":5662:5667   */\n      dup3\n        /* \"#utility.yul\":5658:5674   */\n      add\n        /* \"#utility.yul\":5652:5675   */\n      mload\n        /* \"#utility.yul\":5688:5751   */\n      tag_280\n        /* \"#utility.yul\":5745:5749   */\n      0x20\n        /* \"#utility.yul\":5740:5743   */\n      dup6\n        /* \"#utility.yul\":5736:5750   */\n      add\n        /* \"#utility.yul\":5722:5734   */\n      dup3\n        /* \"#utility.yul\":5688:5751   */\n      tag_203\n      jump\t// in\n    tag_280:\n        /* \"#utility.yul\":5595:5761   */\n      pop\n        /* \"#utility.yul\":5375:5768   */\n      pop\n        /* \"#utility.yul\":5277:5768   */\n      pop\n      pop\n      jump\t// out\n        /* \"#utility.yul\":5774:6037   */\n    tag_205:\n        /* \"#utility.yul\":5885:5895   */\n      0x00\n        /* \"#utility.yul\":5906:5994   */\n      tag_282\n        /* \"#utility.yul\":5990:5993   */\n      dup4\n        /* \"#utility.yul\":5982:5988   */\n      dup4\n        /* \"#utility.yul\":5906:5994   */\n      tag_204\n      jump\t// in\n    tag_282:\n        /* \"#utility.yul\":6026:6030   */\n      0x40\n        /* \"#utility.yul\":6021:6024   */\n      dup4\n        /* \"#utility.yul\":6017:6031   */\n      add\n        /* \"#utility.yul\":6003:6031   */\n      swap1\n      pop\n        /* \"#utility.yul\":5774:6037   */\n      swap3\n      swap2\n      pop\n      pop\n      jump\t// out\n        /* \"#utility.yul\":6043:6177   */\n    tag_206:\n        /* \"#utility.yul\":6134:6138   */\n      0x00\n        /* \"#utility.yul\":6166:6170   */\n      0x20\n        /* \"#utility.yul\":6161:6164   */\n      dup3\n        /* \"#utility.yul\":6157:6171   */\n      add\n        /* \"#utility.yul\":6149:6171   */\n      swap1\n      pop\n        /* \"#utility.yul\":6043:6177   */\n      swap2\n      swap1\n      pop\n      jump\t// out\n        /* \"#utility.yul\":6255:7155   */\n    tag_207:\n        /* \"#utility.yul\":6416:6419   */\n      0x00\n        /* \"#utility.yul\":6445:6520   */\n      tag_285\n        /* \"#utility.yul\":6514:6519   */\n      dup3\n        /* \"#utility.yul\":6445:6520   */\n      tag_200\n      jump\t// in\n    tag_285:\n        /* \"#utility.yul\":6536:6643   */\n      tag_286\n        /* \"#utility.yul\":6636:6642   */\n      dup2\n        /* \"#utility.yul\":6631:6634   */\n      dup6\n        /* \"#utility.yul\":6536:6643   */\n      tag_201\n      jump\t// in\n    tag_286:\n        /* \"#utility.yul\":6529:6643   */\n      swap4\n      pop\n        /* \"#utility.yul\":6667:6744   */\n      tag_287\n        /* \"#utility.yul\":6738:6743   */\n      dup4\n        /* \"#utility.yul\":6667:6744   */\n      tag_202\n      jump\t// in\n    tag_287:\n        /* \"#utility.yul\":6767:6774   */\n      dup1\n        /* \"#utility.yul\":6798:6799   */\n      0x00\n        /* \"#utility.yul\":6783:7130   */\n    tag_288:\n        /* \"#utility.yul\":6808:6814   */\n      dup4\n        /* \"#utility.yul\":6805:6806   */\n      dup2\n        /* \"#utility.yul\":6802:6815   */\n      lt\n        /* \"#utility.yul\":6783:7130   */\n      iszero\n      tag_290\n      jumpi\n        /* \"#utility.yul\":6884:6890   */\n      dup2\n        /* \"#utility.yul\":6878:6891   */\n      mload\n        /* \"#utility.yul\":6911:7016   */\n      tag_291\n        /* \"#utility.yul\":7012:7015   */\n      dup9\n        /* \"#utility.yul\":6997:7010   */\n      dup3\n        /* \"#utility.yul\":6911:7016   */\n      tag_205\n      jump\t// in\n    tag_291:\n        /* \"#utility.yul\":6904:7016   */\n      swap8\n      pop\n        /* \"#utility.yul\":7039:7120   */\n      tag_292\n        /* \"#utility.yul\":7113:7119   */\n      dup4\n        /* \"#utility.yul\":7039:7120   */\n      tag_206\n      jump\t// in\n    tag_292:\n        /* \"#utility.yul\":7029:7120   */\n      swap3\n      pop\n        /* \"#utility.yul\":6843:7130   */\n      pop\n        /* \"#utility.yul\":6830:6831   */\n      0x01\n        /* \"#utility.yul\":6827:6828   */\n      dup2\n        /* \"#utility.yul\":6823:6832   */\n      add\n        /* \"#utility.yul\":6818:6832   */\n      swap1\n      pop\n        /* \"#utility.yul\":6783:7130   */\n      jump(tag_288)\n    tag_290:\n        /* \"#utility.yul\":6787:6801   */\n      pop\n        /* \"#utility.yul\":7146:7149   */\n      dup6\n        /* \"#utility.yul\":7139:7149   */\n      swap4\n      pop\n        /* \"#utility.yul\":6421:7155   */\n      pop\n      pop\n      pop\n        /* \"#utility.yul\":6255:7155   */\n      swap3\n      swap2\n      pop\n      pop\n      jump\t// out\n        /* \"#utility.yul\":7161:7618   */\n    tag_68:\n        /* \"#utility.yul\":7346:7350   */\n      0x00\n        /* \"#utility.yul\":7384:7386   */\n      0x20\n        /* \"#utility.yul\":7373:7382   */\n      dup3\n        /* \"#utility.yul\":7369:7387   */\n      add\n        /* \"#utility.yul\":7361:7387   */\n      swap1\n      pop\n        /* \"#utility.yul\":7433:7442   */\n      dup2\n        /* \"#utility.yul\":7427:7431   */\n      dup2\n        /* \"#utility.yul\":7423:7443   */\n      sub\n        /* \"#utility.yul\":7419:7420   */\n      0x00\n        /* \"#utility.yul\":7408:7417   */\n      dup4\n        /* \"#utility.yul\":7404:7421   */\n      add\n        /* \"#utility.yul\":7397:7444   */\n      mstore\n        /* \"#utility.yul\":7461:7611   */\n      tag_294\n        /* \"#utility.yul\":7606:7610   */\n      dup2\n        /* \"#utility.yul\":7597:7603   */\n      dup5\n        /* \"#utility.yul\":7461:7611   */\n      tag_207\n      jump\t// in\n    tag_294:\n        /* \"#utility.yul\":7453:7611   */\n      swap1\n      pop\n        /* \"#utility.yul\":7161:7618   */\n      swap3\n      swap2\n      pop\n      pop\n      jump\t// out\n        /* \"#utility.yul\":7624:7793   */\n    tag_208:\n        /* \"#utility.yul\":7708:7719   */\n      0x00\n        /* \"#utility.yul\":7742:7748   */\n      dup3\n        /* \"#utility.yul\":7737:7740   */\n      dup3\n        /* \"#utility.yul\":7730:7749   */\n      mstore\n        /* \"#utility.yul\":7782:7786   */\n      0x20\n        /* \"#utility.yul\":7777:7780   */\n      dup3\n        /* \"#utility.yul\":7773:7787   */\n      add\n        /* \"#utility.yul\":7758:7787   */\n      swap1\n      pop\n        /* \"#utility.yul\":7624:7793   */\n      swap3\n      swap2\n      pop\n      pop\n      jump\t// out\n        /* \"#utility.yul\":7799:7965   */\n    tag_209:\n        /* \"#utility.yul\":7939:7957   */\n      0x43616d706169676e206578706972656400000000000000000000000000000000\n        /* \"#utility.yul\":7935:7936   */\n      0x00\n        /* \"#utility.yul\":7927:7933   */\n      dup3\n        /* \"#utility.yul\":7923:7937   */\n      add\n        /* \"#utility.yul\":7916:7958   */\n      mstore\n        /* \"#utility.yul\":7799:7965   */\n      pop\n      jump\t// out\n        /* \"#utility.yul\":7971:8337   */\n    tag_210:\n        /* \"#utility.yul\":8113:8116   */\n      0x00\n        /* \"#utility.yul\":8134:8201   */\n      tag_298\n        /* \"#utility.yul\":8198:8200   */\n      0x10\n        /* \"#utility.yul\":8193:8196   */\n      dup4\n        /* \"#utility.yul\":8134:8201   */\n      tag_208\n      jump\t// in\n    tag_298:\n        /* \"#utility.yul\":8127:8201   */\n      swap2\n      pop\n        /* \"#utility.yul\":8210:8303   */\n      tag_299\n        /* \"#utility.yul\":8299:8302   */\n      dup3\n        /* \"#utility.yul\":8210:8303   */\n      tag_209\n      jump\t// in\n    tag_299:\n        /* \"#utility.yul\":8328:8330   */\n      0x20\n        /* \"#utility.yul\":8323:8326   */\n      dup3\n        /* \"#utility.yul\":8319:8331   */\n      add\n        /* \"#utility.yul\":8312:8331   */\n      swap1\n      pop\n        /* \"#utility.yul\":7971:8337   */\n      swap2\n      swap1\n      pop\n      jump\t// out\n        /* \"#utility.yul\":8343:8762   */\n    tag_72:\n        /* \"#utility.yul\":8509:8513   */\n      0x00\n        /* \"#utility.yul\":8547:8549   */\n      0x20\n        /* \"#utility.yul\":8536:8545   */\n      dup3\n        /* \"#utility.yul\":8532:8550   */\n      add\n        /* \"#utility.yul\":8524:8550   */\n      swap1\n      pop\n        /* \"#utility.yul\":8596:8605   */\n      dup2\n        /* \"#utility.yul\":8590:8594   */\n      dup2\n        /* \"#utility.yul\":8586:8606   */\n      sub\n        /* \"#utility.yul\":8582:8583   */\n      0x00\n        /* \"#utility.yul\":8571:8580   */\n      dup4\n        /* \"#utility.yul\":8567:8584   */\n      add\n        /* \"#utility.yul\":8560:8607   */\n      mstore\n        /* \"#utility.yul\":8624:8755   */\n      tag_301\n        /* \"#utility.yul\":8750:8754   */\n      dup2\n        /* \"#utility.yul\":8624:8755   */\n      tag_210\n      jump\t// in\n    tag_301:\n        /* \"#utility.yul\":8616:8755   */\n      swap1\n      pop\n        /* \"#utility.yul\":8343:8762   */\n      swap2\n      swap1\n      pop\n      jump\t// out\n        /* \"#utility.yul\":8768:8993   */\n    tag_211:\n        /* \"#utility.yul\":8908:8942   */\n      0x446f6e6174696f6e20616d6f756e74206d757374206265206772656174657220\n        /* \"#utility.yul\":8904:8905   */\n      0x00\n        /* \"#utility.yul\":8896:8902   */\n      dup3\n        /* \"#utility.yul\":8892:8906   */\n      add\n        /* \"#utility.yul\":8885:8943   */\n      mstore\n        /* \"#utility.yul\":8977:8985   */\n      0x7468616e20300000000000000000000000000000000000000000000000000000\n        /* \"#utility.yul\":8972:8974   */\n      0x20\n        /* \"#utility.yul\":8964:8970   */\n      dup3\n        /* \"#utility.yul\":8960:8975   */\n      add\n        /* \"#utility.yul\":8953:8986   */\n      mstore\n        /* \"#utility.yul\":8768:8993   */\n      pop\n      jump\t// out\n        /* \"#utility.yul\":8999:9365   */\n    tag_212:\n        /* \"#utility.yul\":9141:9144   */\n      0x00\n        /* \"#utility.yul\":9162:9229   */\n      tag_304\n        /* \"#utility.yul\":9226:9228   */\n      0x26\n        /* \"#utility.yul\":9221:9224   */\n      dup4\n        /* \"#utility.yul\":9162:9229   */\n      tag_208\n      jump\t// in\n    tag_304:\n        /* \"#utility.yul\":9155:9229   */\n      swap2\n      pop\n        /* \"#utility.yul\":9238:9331   */\n      tag_305\n        /* \"#utility.yul\":9327:9330   */\n      dup3\n        /* \"#utility.yul\":9238:9331   */\n      tag_211\n      jump\t// in\n    tag_305:\n        /* \"#utility.yul\":9356:9358   */\n      0x40\n        /* \"#utility.yul\":9351:9354   */\n      dup3\n        /* \"#utility.yul\":9347:9359   */\n      add\n        /* \"#utility.yul\":9340:9359   */\n      swap1\n      pop\n        /* \"#utility.yul\":8999:9365   */\n      swap2\n      swap1\n      pop\n      jump\t// out\n        /* \"#utility.yul\":9371:9790   */\n    tag_76:\n        /* \"#utility.yul\":9537:9541   */\n      0x00\n        /* \"#utility.yul\":9575:9577   */\n      0x20\n        /* \"#utility.yul\":9564:9573   */\n      dup3\n        /* \"#utility.yul\":9560:9578   */\n      add\n        /* \"#utility.yul\":9552:9578   */\n      swap1\n      pop\n        /* \"#utility.yul\":9624:9633   */\n      dup2\n        /* \"#utility.yul\":9618:9622   */\n      dup2\n        /* \"#utility.yul\":9614:9634   */\n      sub\n        /* \"#utility.yul\":9610:9611   */\n      0x00\n        /* \"#utility.yul\":9599:9608   */\n      dup4\n        /* \"#utility.yul\":9595:9612   */\n      add\n        /* \"#utility.yul\":9588:9635   */\n      mstore\n        /* \"#utility.yul\":9652:9783   */\n      tag_307\n        /* \"#utility.yul\":9778:9782   */\n      dup2\n        /* \"#utility.yul\":9652:9783   */\n      tag_212\n      jump\t// in\n    tag_307:\n        /* \"#utility.yul\":9644:9783   */\n      swap1\n      pop\n        /* \"#utility.yul\":9371:9790   */\n      swap2\n      swap1\n      pop\n      jump\t// out\n        /* \"#utility.yul\":9796:9976   */\n    tag_213:\n        /* \"#utility.yul\":9844:9921   */\n      0x4e487b7100000000000000000000000000000000000000000000000000000000\n        /* \"#utility.yul\":9841:9842   */\n      0x00\n        /* \"#utility.yul\":9834:9922   */\n      mstore\n        /* \"#utility.yul\":9941:9945   */\n      0x11\n        /* \"#utility.yul\":9938:9939   */\n      0x04\n        /* \"#utility.yul\":9931:9946   */\n      mstore\n        /* \"#utility.yul\":9965:9969   */\n      0x24\n        /* \"#utility.yul\":9962:9963   */\n      0x00\n        /* \"#utility.yul\":9955:9970   */\n      revert\n        /* \"#utility.yul\":9982:10173   */\n    tag_80:\n        /* \"#utility.yul\":10022:10025   */\n      0x00\n        /* \"#utility.yul\":10041:10061   */\n      tag_310\n        /* \"#utility.yul\":10059:10060   */\n      dup3\n        /* \"#utility.yul\":10041:10061   */\n      tag_181\n      jump\t// in\n    tag_310:\n        /* \"#utility.yul\":10036:10061   */\n      swap2\n      pop\n        /* \"#utility.yul\":10075:10095   */\n      tag_311\n        /* \"#utility.yul\":10093:10094   */\n      dup4\n        /* \"#utility.yul\":10075:10095   */\n      tag_181\n      jump\t// in\n    tag_311:\n        /* \"#utility.yul\":10070:10095   */\n      swap3\n      pop\n        /* \"#utility.yul\":10118:10119   */\n      dup3\n        /* \"#utility.yul\":10115:10116   */\n      dup3\n        /* \"#utility.yul\":10111:10120   */\n      add\n        /* \"#utility.yul\":10104:10120   */\n      swap1\n      pop\n        /* \"#utility.yul\":10139:10142   */\n      dup1\n        /* \"#utility.yul\":10136:10137   */\n      dup3\n        /* \"#utility.yul\":10133:10143   */\n      gt\n        /* \"#utility.yul\":10130:10166   */\n      iszero\n      tag_312\n      jumpi\n        /* \"#utility.yul\":10146:10164   */\n      tag_313\n      tag_213\n      jump\t// in\n    tag_313:\n        /* \"#utility.yul\":10130:10166   */\n    tag_312:\n        /* \"#utility.yul\":9982:10173   */\n      swap3\n      swap2\n      pop\n      pop\n      jump\t// out\n        /* \"#utility.yul\":10179:10352   */\n    tag_214:\n        /* \"#utility.yul\":10319:10344   */\n      0x4f6e6c79206f776e65722063616e207769746864726177000000000000000000\n        /* \"#utility.yul\":10315:10316   */\n      0x00\n        /* \"#utility.yul\":10307:10313   */\n      dup3\n        /* \"#utility.yul\":10303:10317   */\n      add\n        /* \"#utility.yul\":10296:10345   */\n      mstore\n        /* \"#utility.yul\":10179:10352   */\n      pop\n      jump\t// out\n        /* \"#utility.yul\":10358:10724   */\n    tag_215:\n        /* \"#utility.yul\":10500:10503   */\n      0x00\n        /* \"#utility.yul\":10521:10588   */\n      tag_316\n        /* \"#utility.yul\":10585:10587   */\n      0x17\n        /* \"#utility.yul\":10580:10583   */\n      dup4\n        /* \"#utility.yul\":10521:10588   */\n      tag_208\n      jump\t// in\n    tag_316:\n        /* \"#utility.yul\":10514:10588   */\n      swap2\n      pop\n        /* \"#utility.yul\":10597:10690   */\n      tag_317\n        /* \"#utility.yul\":10686:10689   */\n      dup3\n        /* \"#utility.yul\":10597:10690   */\n      tag_214\n      jump\t// in\n    tag_317:\n        /* \"#utility.yul\":10715:10717   */\n      0x20\n        /* \"#utility.yul\":10710:10713   */\n      dup3\n        /* \"#utility.yul\":10706:10718   */\n      add\n        /* \"#utility.yul\":10699:10718   */\n      swap1\n      pop\n        /* \"#utility.yul\":10358:10724   */\n      swap2\n      swap1\n      pop\n      jump\t// out\n        /* \"#utility.yul\":10730:11149   */\n    tag_88:\n        /* \"#utility.yul\":10896:10900   */\n      0x00\n        /* \"#utility.yul\":10934:10936   */\n      0x20\n        /* \"#utility.yul\":10923:10932   */\n      dup3\n        /* \"#utility.yul\":10919:10937   */\n      add\n        /* \"#utility.yul\":10911:10937   */\n      swap1\n      pop\n        /* \"#utility.yul\":10983:10992   */\n      dup2\n        /* \"#utility.yul\":10977:10981   */\n      dup2\n        /* \"#utility.yul\":10973:10993   */\n      sub\n        /* \"#utility.yul\":10969:10970   */\n      0x00\n        /* \"#utility.yul\":10958:10967   */\n      dup4\n        /* \"#utility.yul\":10954:10971   */\n      add\n        /* \"#utility.yul\":10947:10994   */\n      mstore\n        /* \"#utility.yul\":11011:11142   */\n      tag_319\n        /* \"#utility.yul\":11137:11141   */\n      dup2\n        /* \"#utility.yul\":11011:11142   */\n      tag_215\n      jump\t// in\n    tag_319:\n        /* \"#utility.yul\":11003:11142   */\n      swap1\n      pop\n        /* \"#utility.yul\":10730:11149   */\n      swap2\n      swap1\n      pop\n      jump\t// out\n        /* \"#utility.yul\":11155:11335   */\n    tag_216:\n        /* \"#utility.yul\":11295:11327   */\n      0x4e6f2066756e647320617661696c61626c6520746f2077697468647261770000\n        /* \"#utility.yul\":11291:11292   */\n      0x00\n        /* \"#utility.yul\":11283:11289   */\n      dup3\n        /* \"#utility.yul\":11279:11293   */\n      add\n        /* \"#utility.yul\":11272:11328   */\n      mstore\n        /* \"#utility.yul\":11155:11335   */\n      pop\n      jump\t// out\n        /* \"#utility.yul\":11341:11707   */\n    tag_217:\n        /* \"#utility.yul\":11483:11486   */\n      0x00\n        /* \"#utility.yul\":11504:11571   */\n      tag_322\n        /* \"#utility.yul\":11568:11570   */\n      0x1e\n        /* \"#utility.yul\":11563:11566   */\n      dup4\n        /* \"#utility.yul\":11504:11571   */\n      tag_208\n      jump\t// in\n    tag_322:\n        /* \"#utility.yul\":11497:11571   */\n      swap2\n      pop\n        /* \"#utility.yul\":11580:11673   */\n      tag_323\n        /* \"#utility.yul\":11669:11672   */\n      dup3\n        /* \"#utility.yul\":11580:11673   */\n      tag_216\n      jump\t// in\n    tag_323:\n        /* \"#utility.yul\":11698:11700   */\n      0x20\n        /* \"#utility.yul\":11693:11696   */\n      dup3\n        /* \"#utility.yul\":11689:11701   */\n      add\n        /* \"#utility.yul\":11682:11701   */\n      swap1\n      pop\n        /* \"#utility.yul\":11341:11707   */\n      swap2\n      swap1\n      pop\n      jump\t// out\n        /* \"#utility.yul\":11713:12132   */\n    tag_92:\n        /* \"#utility.yul\":11879:11883   */\n      0x00\n        /* \"#utility.yul\":11917:11919   */\n      0x20\n        /* \"#utility.yul\":11906:11915   */\n      dup3\n        /* \"#utility.yul\":11902:11920   */\n      add\n        /* \"#utility.yul\":11894:11920   */\n      swap1\n      pop\n        /* \"#utility.yul\":11966:11975   */\n      dup2\n        /* \"#utility.yul\":11960:11964   */\n      dup2\n        /* \"#utility.yul\":11956:11976   */\n      sub\n        /* \"#utility.yul\":11952:11953   */\n      0x00\n        /* \"#utility.yul\":11941:11950   */\n      dup4\n        /* \"#utility.yul\":11937:11954   */\n      add\n        /* \"#utility.yul\":11930:11977   */\n      mstore\n        /* \"#utility.yul\":11994:12125   */\n      tag_325\n        /* \"#utility.yul\":12120:12124   */\n      dup2\n        /* \"#utility.yul\":11994:12125   */\n      tag_217\n      jump\t// in\n    tag_325:\n        /* \"#utility.yul\":11986:12125   */\n      swap1\n      pop\n        /* \"#utility.yul\":11713:12132   */\n      swap2\n      swap1\n      pop\n      jump\t// out\n        /* \"#utility.yul\":12138:12312   */\n    tag_218:\n        /* \"#utility.yul\":12278:12304   */\n      0x6e206d7573742062652067726561746572207468616e20300000000000000000\n        /* \"#utility.yul\":12274:12275   */\n      0x00\n        /* \"#utility.yul\":12266:12272   */\n      dup3\n        /* \"#utility.yul\":12262:12276   */\n      add\n        /* \"#utility.yul\":12255:12305   */\n      mstore\n        /* \"#utility.yul\":12138:12312   */\n      pop\n      jump\t// out\n        /* \"#utility.yul\":12318:12684   */\n    tag_219:\n        /* \"#utility.yul\":12460:12463   */\n      0x00\n        /* \"#utility.yul\":12481:12548   */\n      tag_328\n        /* \"#utility.yul\":12545:12547   */\n      0x18\n        /* \"#utility.yul\":12540:12543   */\n      dup4\n        /* \"#utility.yul\":12481:12548   */\n      tag_208\n      jump\t// in\n    tag_328:\n        /* \"#utility.yul\":12474:12548   */\n      swap2\n      pop\n        /* \"#utility.yul\":12557:12650   */\n      tag_329\n        /* \"#utility.yul\":12646:12649   */\n      dup3\n        /* \"#utility.yul\":12557:12650   */\n      tag_218\n      jump\t// in\n    tag_329:\n        /* \"#utility.yul\":12675:12677   */\n      0x20\n        /* \"#utility.yul\":12670:12673   */\n      dup3\n        /* \"#utility.yul\":12666:12678   */\n      add\n        /* \"#utility.yul\":12659:12678   */\n      swap1\n      pop\n        /* \"#utility.yul\":12318:12684   */\n      swap2\n      swap1\n      pop\n      jump\t// out\n        /* \"#utility.yul\":12690:13109   */\n    tag_106:\n        /* \"#utility.yul\":12856:12860   */\n      0x00\n        /* \"#utility.yul\":12894:12896   */\n      0x20\n        /* \"#utility.yul\":12883:12892   */\n      dup3\n        /* \"#utility.yul\":12879:12897   */\n      add\n        /* \"#utility.yul\":12871:12897   */\n      swap1\n      pop\n        /* \"#utility.yul\":12943:12952   */\n      dup2\n        /* \"#utility.yul\":12937:12941   */\n      dup2\n        /* \"#utility.yul\":12933:12953   */\n      sub\n        /* \"#utility.yul\":12929:12930   */\n      0x00\n        /* \"#utility.yul\":12918:12927   */\n      dup4\n        /* \"#utility.yul\":12914:12931   */\n      add\n        /* \"#utility.yul\":12907:12954   */\n      mstore\n        /* \"#utility.yul\":12971:13102   */\n      tag_331\n        /* \"#utility.yul\":13097:13101   */\n      dup2\n        /* \"#utility.yul\":12971:13102   */\n      tag_219\n      jump\t// in\n    tag_331:\n        /* \"#utility.yul\":12963:13102   */\n      swap1\n      pop\n        /* \"#utility.yul\":12690:13109   */\n      swap2\n      swap1\n      pop\n      jump\t// out\n        /* \"#utility.yul\":13115:13295   */\n    tag_111:\n        /* \"#utility.yul\":13163:13240   */\n      0x4e487b7100000000000000000000000000000000000000000000000000000000\n        /* \"#utility.yul\":13160:13161   */\n      0x00\n        /* \"#utility.yul\":13153:13241   */\n      mstore\n        /* \"#utility.yul\":13260:13264   */\n      0x41\n        /* \"#utility.yul\":13257:13258   */\n      0x04\n        /* \"#utility.yul\":13250:13265   */\n      mstore\n        /* \"#utility.yul\":13284:13288   */\n      0x24\n        /* \"#utility.yul\":13281:13282   */\n      0x00\n        /* \"#utility.yul\":13274:13289   */\n      revert\n        /* \"#utility.yul\":13301:13481   */\n    tag_121:\n        /* \"#utility.yul\":13349:13426   */\n      0x4e487b7100000000000000000000000000000000000000000000000000000000\n        /* \"#utility.yul\":13346:13347   */\n      0x00\n        /* \"#utility.yul\":13339:13427   */\n      mstore\n        /* \"#utility.yul\":13446:13450   */\n      0x32\n        /* \"#utility.yul\":13443:13444   */\n      0x04\n        /* \"#utility.yul\":13436:13451   */\n      mstore\n        /* \"#utility.yul\":13470:13474   */\n      0x24\n        /* \"#utility.yul\":13467:13468   */\n      0x00\n        /* \"#utility.yul\":13460:13475   */\n      revert\n        /* \"#utility.yul\":13487:13681   */\n    tag_134:\n        /* \"#utility.yul\":13527:13531   */\n      0x00\n        /* \"#utility.yul\":13547:13567   */\n      tag_335\n        /* \"#utility.yul\":13565:13566   */\n      dup3\n        /* \"#utility.yul\":13547:13567   */\n      tag_181\n      jump\t// in\n    tag_335:\n        /* \"#utility.yul\":13542:13567   */\n      swap2\n      pop\n        /* \"#utility.yul\":13581:13601   */\n      tag_336\n        /* \"#utility.yul\":13599:13600   */\n      dup4\n        /* \"#utility.yul\":13581:13601   */\n      tag_181\n      jump\t// in\n    tag_336:\n        /* \"#utility.yul\":13576:13601   */\n      swap3\n      pop\n        /* \"#utility.yul\":13625:13626   */\n      dup3\n        /* \"#utility.yul\":13622:13623   */\n      dup3\n        /* \"#utility.yul\":13618:13627   */\n      sub\n        /* \"#utility.yul\":13610:13627   */\n      swap1\n      pop\n        /* \"#utility.yul\":13649:13650   */\n      dup2\n        /* \"#utility.yul\":13643:13647   */\n      dup2\n        /* \"#utility.yul\":13640:13651   */\n      gt\n        /* \"#utility.yul\":13637:13674   */\n      iszero\n      tag_337\n      jumpi\n        /* \"#utility.yul\":13654:13672   */\n      tag_338\n      tag_213\n      jump\t// in\n    tag_338:\n        /* \"#utility.yul\":13637:13674   */\n    tag_337:\n        /* \"#utility.yul\":13487:13681   */\n      swap3\n      swap2\n      pop\n      pop\n      jump\t// out\n        /* \"#utility.yul\":13687:13867   */\n    tag_143:\n        /* \"#utility.yul\":13735:13812   */\n      0x4e487b7100000000000000000000000000000000000000000000000000000000\n        /* \"#utility.yul\":13732:13733   */\n      0x00\n        /* \"#utility.yul\":13725:13813   */\n      mstore\n        /* \"#utility.yul\":13832:13836   */\n      0x31\n        /* \"#utility.yul\":13829:13830   */\n      0x04\n        /* \"#utility.yul\":13822:13837   */\n      mstore\n        /* \"#utility.yul\":13856:13860   */\n      0x24\n        /* \"#utility.yul\":13853:13854   */\n      0x00\n        /* \"#utility.yul\":13846:13861   */\n      revert\n\n    auxdata: 0xa2646970667358221220e843e0a0e32d6d72f8e58b5ea5ed4fa92b91397788b50aa1dce001724efde86f64736f6c634300081b0033\n}\n",
				"bytecode": {
					"linkReferences": {},
					"object": "6080604052348015600e575f5ffd5b5060405161161f38038061161f8339818101604052810190602e919060ab565b335f5f6101000a81548173ffffffffffffffffffffffffffffffffffffffff021916908373ffffffffffffffffffffffffffffffffffffffff160217905550806004819055505060d1565b5f5ffd5b5f819050919050565b608d81607d565b81146096575f5ffd5b50565b5f8151905060a5816086565b92915050565b5f6020828403121560bd5760bc6079565b5b5f60c8848285016099565b91505092915050565b611541806100de5f395ff3fe60806040526004361061009f575f3560e01c80638da5cb5b116100635780638da5cb5b146101825780639171b1a9146101ac578063ac62f566146101d6578063cc6cb19a14610212578063ed88c68e1461024e578063f5d1282b14610258576100ae565b806312065fe0146100b25780633197cbb6146100dc5780633ccfd60b14610106578063410a1d321461011c57806385aae38214610158576100ae565b366100ae576100ac610294565b005b5f5ffd5b3480156100bd575f5ffd5b506100c66104aa565b6040516100d39190610eb9565b60405180910390f35b3480156100e7575f5ffd5b506100f06104b1565b6040516100fd9190610eb9565b60405180910390f35b348015610111575f5ffd5b5061011a6104b7565b005b348015610127575f5ffd5b50610142600480360381019061013d9190610f30565b610660565b60405161014f9190610eb9565b60405180910390f35b348015610163575f5ffd5b5061016c6106a6565b6040516101799190611012565b60405180910390f35b34801561018d575f5ffd5b50610196610731565b6040516101a39190611041565b60405180910390f35b3480156101b7575f5ffd5b506101c0610755565b6040516101cd9190610eb9565b60405180910390f35b3480156101e1575f5ffd5b506101fc60048036038101906101f79190611084565b610761565b6040516102099190611041565b60405180910390f35b34801561021d575f5ffd5b5061023860048036038101906102339190610f30565b61079c565b6040516102459190610eb9565b60405180910390f35b610256610294565b005b348015610263575f5ffd5b5061027e60048036038101906102799190611084565b6107b1565b60405161028b9190611193565b60405180910390f35b6004544211156102d9576040517f08c379a00000000000000000000000000000000000000000000000000000000081526004016102d09061120d565b60405180910390fd5b5f341161031b576040517f08c379a00000000000000000000000000000000000000000000000000000000081526004016103129061129b565b60405180910390fd5b5f60015f3373ffffffffffffffffffffffffffffffffffffffff1673ffffffffffffffffffffffffffffffffffffffff1681526020019081526020015f2054036103c057600233908060018154018082558091505060019003905f5260205f20015f9091909190916101000a81548173ffffffffffffffffffffffffffffffffffffffff021916908373ffffffffffffffffffffffffffffffffffffffff1602179055505b3460015f3373ffffffffffffffffffffffffffffffffffffffff1673ffffffffffffffffffffffffffffffffffffffff1681526020019081526020015f205f82825461040c91906112e6565b9250508190555061045a3360015f3373ffffffffffffffffffffffffffffffffffffffff1673ffffffffffffffffffffffffffffffffffffffff1681526020019081526020015f2054610934565b3373ffffffffffffffffffffffffffffffffffffffff167f5d8bc849764969eb1bcc6d0a2f55999d0167c1ccec240a4f39cf664ca9c4148e346040516104a09190610eb9565b60405180910390a2565b5f47905090565b60045481565b5f5f9054906101000a900473ffffffffffffffffffffffffffffffffffffffff1673ffffffffffffffffffffffffffffffffffffffff163373ffffffffffffffffffffffffffffffffffffffff1614610545576040517f08c379a000000000000000000000000000000000000000000000000000000000815260040161053c90611363565b60405180910390fd5b5f4790505f811161058b576040517f08c379a0000000000000000000000000000000000000000000000000000000008152600401610582906113cb565b60405180910390fd5b5f5f9054906101000a900473ffffffffffffffffffffffffffffffffffffffff1673ffffffffffffffffffffffffffffffffffffffff166108fc8290811502906040515f60405180830381858888f193505050501580156105ee573d5f5f3e3d5ffd5b505f5f9054906101000a900473ffffffffffffffffffffffffffffffffffffffff1673ffffffffffffffffffffffffffffffffffffffff167f7fcf532c15f0a6db0bd6d0e038bea71d30d808c7d98cb3bf7268a95bf5081b65826040516106559190610eb9565b60405180910390a250565b5f60015f8373ffffffffffffffffffffffffffffffffffffffff1673ffffffffffffffffffffffffffffffffffffffff1681526020019081526020015f20549050919050565b6060600280548060200260200160405190810160405280929190818152602001828054801561072757602002820191905f5260205f20905b815f9054906101000a900473ffffffffffffffffffffffffffffffffffffffff1673ffffffffffffffffffffffffffffffffffffffff16815260200190600101908083116106de575b5050505050905090565b5f5f9054906101000a900473ffffffffffffffffffffffffffffffffffffffff1681565b5f600280549050905090565b60028181548110610770575f80fd5b905f5260205f20015f915054906101000a900473ffffffffffffffffffffffffffffffffffffffff1681565b6001602052805f5260405f205f915090505481565b60605f82116107f5576040517f08c379a00000000000000000000000000000000000000000000000000000000081526004016107ec90611433565b60405180910390fd5b5f6003805490508311610808578261080f565b6003805490505b90505f8167ffffffffffffffff81111561082c5761082b611451565b5b60405190808252806020026020018201604052801561086557816020015b610852610e73565b81526020019060019003908161084a5790505b5090505f5f90505b8281101561092957600381815481106108895761088861147e565b5b905f5260205f2090600202016040518060400160405290815f82015f9054906101000a900473ffffffffffffffffffffffffffffffffffffffff1673ffffffffffffffffffffffffffffffffffffffff1673ffffffffffffffffffffffffffffffffffffffff1681526020016001820154815250508282815181106109115761091061147e565b5b6020026020010181905250808060010191505061086d565b508092505050919050565b5f5f90505b600380549050811015610ae2578273ffffffffffffffffffffffffffffffffffffffff16600382815481106109715761097061147e565b5b905f5260205f2090600202015f015f9054906101000a900473ffffffffffffffffffffffffffffffffffffffff1673ffffffffffffffffffffffffffffffffffffffff1603610ad557600360016003805490506109ce91906114ab565b815481106109df576109de61147e565b5b905f5260205f209060020201600382815481106109ff576109fe61147e565b5b905f5260205f2090600202015f82015f9054906101000a900473ffffffffffffffffffffffffffffffffffffffff16815f015f6101000a81548173ffffffffffffffffffffffffffffffffffffffff021916908373ffffffffffffffffffffffffffffffffffffffff160217905550600182015481600101559050506003805480610a8d57610a8c6114de565b5b600190038181905f5260205f2090600202015f5f82015f6101000a81549073ffffffffffffffffffffffffffffffffffffffff0219169055600182015f905550509055610ae2565b8080600101915050610939565b50600360405180604001604052808473ffffffffffffffffffffffffffffffffffffffff16815260200183815250908060018154018082558091505060019003905f5260205f2090600202015f909190919091505f820151815f015f6101000a81548173ffffffffffffffffffffffffffffffffffffffff021916908373ffffffffffffffffffffffffffffffffffffffff1602179055506020820151816001015550505f5f90505b6001600380549050610b9d91906114ab565b811015610e0a575f5f90505b600182600380549050610bbc91906114ab565b610bc691906114ab565b811015610dfc576003600182610bdc91906112e6565b81548110610bed57610bec61147e565b5b905f5260205f2090600202016001015460038281548110610c1157610c1061147e565b5b905f5260205f209060020201600101541015610def575f60038281548110610c3c57610c3b61147e565b5b905f5260205f2090600202016040518060400160405290815f82015f9054906101000a900473ffffffffffffffffffffffffffffffffffffffff1673ffffffffffffffffffffffffffffffffffffffff1673ffffffffffffffffffffffffffffffffffffffff16815260200160018201548152505090506003600183610cc291906112e6565b81548110610cd357610cd261147e565b5b905f5260205f20906002020160038381548110610cf357610cf261147e565b5b905f5260205f2090600202015f82015f9054906101000a900473ffffffffffffffffffffffffffffffffffffffff16815f015f6101000a81548173ffffffffffffffffffffffffffffffffffffffff021916908373ffffffffffffffffffffffffffffffffffffffff16021790555060018201548160010155905050806003600184610d7f91906112e6565b81548110610d9057610d8f61147e565b5b905f5260205f2090600202015f820151815f015f6101000a81548173ffffffffffffffffffffffffffffffffffffffff021916908373ffffffffffffffffffffffffffffffffffffffff16021790555060208201518160010155905050505b8080600101915050610ba9565b508080600101915050610b8b565b5060646003805490501115610e6f576003805480610e2b57610e2a6114de565b5b600190038181905f5260205f2090600202015f5f82015f6101000a81549073ffffffffffffffffffffffffffffffffffffffff0219169055600182015f9055505090555b5050565b60405180604001604052805f73ffffffffffffffffffffffffffffffffffffffff1681526020015f81525090565b5f819050919050565b610eb381610ea1565b82525050565b5f602082019050610ecc5f830184610eaa565b92915050565b5f5ffd5b5f73ffffffffffffffffffffffffffffffffffffffff82169050919050565b5f610eff82610ed6565b9050919050565b610f0f81610ef5565b8114610f19575f5ffd5b50565b5f81359050610f2a81610f06565b92915050565b5f60208284031215610f4557610f44610ed2565b5b5f610f5284828501610f1c565b91505092915050565b5f81519050919050565b5f82825260208201905092915050565b5f819050602082019050919050565b610f8d81610ef5565b82525050565b5f610f9e8383610f84565b60208301905092915050565b5f602082019050919050565b5f610fc082610f5b565b610fca8185610f65565b9350610fd583610f75565b805f5b83811015611005578151610fec8882610f93565b9750610ff783610faa565b925050600181019050610fd8565b5085935050505092915050565b5f6020820190508181035f83015261102a8184610fb6565b905092915050565b61103b81610ef5565b82525050565b5f6020820190506110545f830184611032565b92915050565b61106381610ea1565b811461106d575f5ffd5b50565b5f8135905061107e8161105a565b92915050565b5f6020828403121561109957611098610ed2565b5b5f6110a684828501611070565b91505092915050565b5f81519050919050565b5f82825260208201905092915050565b5f819050602082019050919050565b6110e181610ea1565b82525050565b604082015f8201516110fb5f850182610f84565b50602082015161110e60208501826110d8565b50505050565b5f61111f83836110e7565b60408301905092915050565b5f602082019050919050565b5f611141826110af565b61114b81856110b9565b9350611156836110c9565b805f5b8381101561118657815161116d8882611114565b97506111788361112b565b925050600181019050611159565b5085935050505092915050565b5f6020820190508181035f8301526111ab8184611137565b905092915050565b5f82825260208201905092915050565b7f43616d706169676e2065787069726564000000000000000000000000000000005f82015250565b5f6111f76010836111b3565b9150611202826111c3565b602082019050919050565b5f6020820190508181035f830152611224816111eb565b9050919050565b7f446f6e6174696f6e20616d6f756e74206d7573742062652067726561746572205f8201527f7468616e20300000000000000000000000000000000000000000000000000000602082015250565b5f6112856026836111b3565b91506112908261122b565b604082019050919050565b5f6020820190508181035f8301526112b281611279565b9050919050565b7f4e487b71000000000000000000000000000000000000000000000000000000005f52601160045260245ffd5b5f6112f082610ea1565b91506112fb83610ea1565b9250828201905080821115611313576113126112b9565b5b92915050565b7f4f6e6c79206f776e65722063616e2077697468647261770000000000000000005f82015250565b5f61134d6017836111b3565b915061135882611319565b602082019050919050565b5f6020820190508181035f83015261137a81611341565b9050919050565b7f4e6f2066756e647320617661696c61626c6520746f20776974686472617700005f82015250565b5f6113b5601e836111b3565b91506113c082611381565b602082019050919050565b5f6020820190508181035f8301526113e2816113a9565b9050919050565b7f6e206d7573742062652067726561746572207468616e203000000000000000005f82015250565b5f61141d6018836111b3565b9150611428826113e9565b602082019050919050565b5f6020820190508181035f83015261144a81611411565b9050919050565b7f4e487b71000000000000000000000000000000000000000000000000000000005f52604160045260245ffd5b7f4e487b71000000000000000000000000000000000000000000000000000000005f52603260045260245ffd5b5f6114b582610ea1565b91506114c083610ea1565b92508282039050818111156114d8576114d76112b9565b5b92915050565b7f4e487b71000000000000000000000000000000000000000000000000000000005f52603160045260245ffdfea2646970667358221220e843e0a0e32d6d72f8e58b5ea5ed4fa92b91397788b50aa1dce001724efde86f64736f6c634300081b0033",
					"opcodes": "PUSH1 0x80 PUSH1 0x40 MSTORE CALLVALUE DUP1 ISZERO PUSH1 0xE JUMPI PUSH0 PUSH0 REVERT JUMPDEST POP PUSH1 0x40 MLOAD PUSH2 0x161F CODESIZE SUB DUP1 PUSH2 0x161F DUP4 CODECOPY DUP2 DUP2 ADD PUSH1 0x40 MSTORE DUP2 ADD SWAP1 PUSH1 0x2E SWAP2 SWAP1 PUSH1 0xAB JUMP JUMPDEST CALLER PUSH0 PUSH0 PUSH2 0x100 EXP DUP2 SLOAD DUP2 PUSH20 0xFFFFFFFFFFFFFFFFFFFFFFFFFFFFFFFFFFFFFFFF MUL NOT AND SWAP1 DUP4 PUSH20 0xFFFFFFFFFFFFFFFFFFFFFFFFFFFFFFFFFFFFFFFF AND MUL OR SWAP1 SSTORE POP DUP1 PUSH1 0x4 DUP2 SWAP1 SSTORE POP POP PUSH1 0xD1 JUMP JUMPDEST PUSH0 PUSH0 REVERT JUMPDEST PUSH0 DUP2 SWAP1 POP SWAP2 SWAP1 POP JUMP JUMPDEST PUSH1 0x8D DUP2 PUSH1 0x7D JUMP JUMPDEST DUP2 EQ PUSH1 0x96 JUMPI PUSH0 PUSH0 REVERT JUMPDEST POP JUMP JUMPDEST PUSH0 DUP2 MLOAD SWAP1 POP PUSH1 0xA5 DUP2 PUSH1 0x86 JUMP JUMPDEST SWAP3 SWAP2 POP POP JUMP JUMPDEST PUSH0 PUSH1 0x20 DUP3 DUP5 SUB SLT ISZERO PUSH1 0xBD JUMPI PUSH1 0xBC PUSH1 0x79 JUMP JUMPDEST JUMPDEST PUSH0 PUSH1 0xC8 DUP5 DUP3 DUP6 ADD PUSH1 0x99 JUMP JUMPDEST SWAP2 POP POP SWAP3 SWAP2 POP POP JUMP JUMPDEST PUSH2 0x1541 DUP1 PUSH2 0xDE PUSH0 CODECOPY PUSH0 RETURN INVALID PUSH1 0x80 PUSH1 0x40 MSTORE PUSH1 0x4 CALLDATASIZE LT PUSH2 0x9F JUMPI PUSH0 CALLDATALOAD PUSH1 0xE0 SHR DUP1 PUSH4 0x8DA5CB5B GT PUSH2 0x63 JUMPI DUP1 PUSH4 0x8DA5CB5B EQ PUSH2 0x182 JUMPI DUP1 PUSH4 0x9171B1A9 EQ PUSH2 0x1AC JUMPI DUP1 PUSH4 0xAC62F566 EQ PUSH2 0x1D6 JUMPI DUP1 PUSH4 0xCC6CB19A EQ PUSH2 0x212 JUMPI DUP1 PUSH4 0xED88C68E EQ PUSH2 0x24E JUMPI DUP1 PUSH4 0xF5D1282B EQ PUSH2 0x258 JUMPI PUSH2 0xAE JUMP JUMPDEST DUP1 PUSH4 0x12065FE0 EQ PUSH2 0xB2 JUMPI DUP1 PUSH4 0x3197CBB6 EQ PUSH2 0xDC JUMPI DUP1 PUSH4 0x3CCFD60B EQ PUSH2 0x106 JUMPI DUP1 PUSH4 0x410A1D32 EQ PUSH2 0x11C JUMPI DUP1 PUSH4 0x85AAE382 EQ PUSH2 0x158 JUMPI PUSH2 0xAE JUMP JUMPDEST CALLDATASIZE PUSH2 0xAE JUMPI PUSH2 0xAC PUSH2 0x294 JUMP JUMPDEST STOP JUMPDEST PUSH0 PUSH0 REVERT JUMPDEST CALLVALUE DUP1 ISZERO PUSH2 0xBD JUMPI PUSH0 PUSH0 REVERT JUMPDEST POP PUSH2 0xC6 PUSH2 0x4AA JUMP JUMPDEST PUSH1 0x40 MLOAD PUSH2 0xD3 SWAP2 SWAP1 PUSH2 0xEB9 JUMP JUMPDEST PUSH1 0x40 MLOAD DUP1 SWAP2 SUB SWAP1 RETURN JUMPDEST CALLVALUE DUP1 ISZERO PUSH2 0xE7 JUMPI PUSH0 PUSH0 REVERT JUMPDEST POP PUSH2 0xF0 PUSH2 0x4B1 JUMP JUMPDEST PUSH1 0x40 MLOAD PUSH2 0xFD SWAP2 SWAP1 PUSH2 0xEB9 JUMP JUMPDEST PUSH1 0x40 MLOAD DUP1 SWAP2 SUB SWAP1 RETURN JUMPDEST CALLVALUE DUP1 ISZERO PUSH2 0x111 JUMPI PUSH0 PUSH0 REVERT JUMPDEST POP PUSH2 0x11A PUSH2 0x4B7 JUMP JUMPDEST STOP JUMPDEST CALLVALUE DUP1 ISZERO PUSH2 0x127 JUMPI PUSH0 PUSH0 REVERT JUMPDEST POP PUSH2 0x142 PUSH1 0x4 DUP1 CALLDATASIZE SUB DUP2 ADD SWAP1 PUSH2 0x13D SWAP2 SWAP1 PUSH2 0xF30 JUMP JUMPDEST PUSH2 0x660 JUMP JUMPDEST PUSH1 0x40 MLOAD PUSH2 0x14F SWAP2 SWAP1 PUSH2 0xEB9 JUMP JUMPDEST PUSH1 0x40 MLOAD DUP1 SWAP2 SUB SWAP1 RETURN JUMPDEST CALLVALUE DUP1 ISZERO PUSH2 0x163 JUMPI PUSH0 PUSH0 REVERT JUMPDEST POP PUSH2 0x16C PUSH2 0x6A6 JUMP JUMPDEST PUSH1 0x40 MLOAD PUSH2 0x179 SWAP2 SWAP1 PUSH2 0x1012 JUMP JUMPDEST PUSH1 0x40 MLOAD DUP1 SWAP2 SUB SWAP1 RETURN JUMPDEST CALLVALUE DUP1 ISZERO PUSH2 0x18D JUMPI PUSH0 PUSH0 REVERT JUMPDEST POP PUSH2 0x196 PUSH2 0x731 JUMP JUMPDEST PUSH1 0x40 MLOAD PUSH2 0x1A3 SWAP2 SWAP1 PUSH2 0x1041 JUMP JUMPDEST PUSH1 0x40 MLOAD DUP1 SWAP2 SUB SWAP1 RETURN JUMPDEST CALLVALUE DUP1 ISZERO PUSH2 0x1B7 JUMPI PUSH0 PUSH0 REVERT JUMPDEST POP PUSH2 0x1C0 PUSH2 0x755 JUMP JUMPDEST PUSH1 0x40 MLOAD PUSH2 0x1CD SWAP2 SWAP1 PUSH2 0xEB9 JUMP JUMPDEST PUSH1 0x40 MLOAD DUP1 SWAP2 SUB SWAP1 RETURN JUMPDEST CALLVALUE DUP1 ISZERO PUSH2 0x1E1 JUMPI PUSH0 PUSH0 REVERT JUMPDEST POP PUSH2 0x1FC PUSH1 0x4 DUP1 CALLDATASIZE SUB DUP2 ADD SWAP1 PUSH2 0x1F7 SWAP2 SWAP1 PUSH2 0x1084 JUMP JUMPDEST PUSH2 0x761 JUMP JUMPDEST PUSH1 0x40 MLOAD PUSH2 0x209 SWAP2 SWAP1 PUSH2 0x1041 JUMP JUMPDEST PUSH1 0x40 MLOAD DUP1 SWAP2 SUB SWAP1 RETURN JUMPDEST CALLVALUE DUP1 ISZERO PUSH2 0x21D JUMPI PUSH0 PUSH0 REVERT JUMPDEST POP PUSH2 0x238 PUSH1 0x4 DUP1 CALLDATASIZE SUB DUP2 ADD SWAP1 PUSH2 0x233 SWAP2 SWAP1 PUSH2 0xF30 JUMP JUMPDEST PUSH2 0x79C JUMP JUMPDEST PUSH1 0x40 MLOAD PUSH2 0x245 SWAP2 SWAP1 PUSH2 0xEB9 JUMP JUMPDEST PUSH1 0x40 MLOAD DUP1 SWAP2 SUB SWAP1 RETURN JUMPDEST PUSH2 0x256 PUSH2 0x294 JUMP JUMPDEST STOP JUMPDEST CALLVALUE DUP1 ISZERO PUSH2 0x263 JUMPI PUSH0 PUSH0 REVERT JUMPDEST POP PUSH2 0x27E PUSH1 0x4 DUP1 CALLDATASIZE SUB DUP2 ADD SWAP1 PUSH2 0x279 SWAP2 SWAP1 PUSH2 0x1084 JUMP JUMPDEST PUSH2 0x7B1 JUMP JUMPDEST PUSH1 0x40 MLOAD PUSH2 0x28B SWAP2 SWAP1 PUSH2 0x1193 JUMP JUMPDEST PUSH1 0x40 MLOAD DUP1 SWAP2 SUB SWAP1 RETURN JUMPDEST PUSH1 0x4 SLOAD TIMESTAMP GT ISZERO PUSH2 0x2D9 JUMPI PUSH1 0x40 MLOAD PUSH32 0x8C379A000000000000000000000000000000000000000000000000000000000 DUP2 MSTORE PUSH1 0x4 ADD PUSH2 0x2D0 SWAP1 PUSH2 0x120D JUMP JUMPDEST PUSH1 0x40 MLOAD DUP1 SWAP2 SUB SWAP1 REVERT JUMPDEST PUSH0 CALLVALUE GT PUSH2 0x31B JUMPI PUSH1 0x40 MLOAD PUSH32 0x8C379A000000000000000000000000000000000000000000000000000000000 DUP2 MSTORE PUSH1 0x4 ADD PUSH2 0x312 SWAP1 PUSH2 0x129B JUMP JUMPDEST PUSH1 0x40 MLOAD DUP1 SWAP2 SUB SWAP1 REVERT JUMPDEST PUSH0 PUSH1 0x1 PUSH0 CALLER PUSH20 0xFFFFFFFFFFFFFFFFFFFFFFFFFFFFFFFFFFFFFFFF AND PUSH20 0xFFFFFFFFFFFFFFFFFFFFFFFFFFFFFFFFFFFFFFFF AND DUP2 MSTORE PUSH1 0x20 ADD SWAP1 DUP2 MSTORE PUSH1 0x20 ADD PUSH0 KECCAK256 SLOAD SUB PUSH2 0x3C0 JUMPI PUSH1 0x2 CALLER SWAP1 DUP1 PUSH1 0x1 DUP2 SLOAD ADD DUP1 DUP3 SSTORE DUP1 SWAP2 POP POP PUSH1 0x1 SWAP1 SUB SWAP1 PUSH0 MSTORE PUSH1 0x20 PUSH0 KECCAK256 ADD PUSH0 SWAP1 SWAP2 SWAP1 SWAP2 SWAP1 SWAP2 PUSH2 0x100 EXP DUP2 SLOAD DUP2 PUSH20 0xFFFFFFFFFFFFFFFFFFFFFFFFFFFFFFFFFFFFFFFF MUL NOT AND SWAP1 DUP4 PUSH20 0xFFFFFFFFFFFFFFFFFFFFFFFFFFFFFFFFFFFFFFFF AND MUL OR SWAP1 SSTORE POP JUMPDEST CALLVALUE PUSH1 0x1 PUSH0 CALLER PUSH20 0xFFFFFFFFFFFFFFFFFFFFFFFFFFFFFFFFFFFFFFFF AND PUSH20 0xFFFFFFFFFFFFFFFFFFFFFFFFFFFFFFFFFFFFFFFF AND DUP2 MSTORE PUSH1 0x20 ADD SWAP1 DUP2 MSTORE PUSH1 0x20 ADD PUSH0 KECCAK256 PUSH0 DUP3 DUP3 SLOAD PUSH2 0x40C SWAP2 SWAP1 PUSH2 0x12E6 JUMP JUMPDEST SWAP3 POP POP DUP2 SWAP1 SSTORE POP PUSH2 0x45A CALLER PUSH1 0x1 PUSH0 CALLER PUSH20 0xFFFFFFFFFFFFFFFFFFFFFFFFFFFFFFFFFFFFFFFF AND PUSH20 0xFFFFFFFFFFFFFFFFFFFFFFFFFFFFFFFFFFFFFFFF AND DUP2 MSTORE PUSH1 0x20 ADD SWAP1 DUP2 MSTORE PUSH1 0x20 ADD PUSH0 KECCAK256 SLOAD PUSH2 0x934 JUMP JUMPDEST CALLER PUSH20 0xFFFFFFFFFFFFFFFFFFFFFFFFFFFFFFFFFFFFFFFF AND PUSH32 0x5D8BC849764969EB1BCC6D0A2F55999D0167C1CCEC240A4F39CF664CA9C4148E CALLVALUE PUSH1 0x40 MLOAD PUSH2 0x4A0 SWAP2 SWAP1 PUSH2 0xEB9 JUMP JUMPDEST PUSH1 0x40 MLOAD DUP1 SWAP2 SUB SWAP1 LOG2 JUMP JUMPDEST PUSH0 SELFBALANCE SWAP1 POP SWAP1 JUMP JUMPDEST PUSH1 0x4 SLOAD DUP2 JUMP JUMPDEST PUSH0 PUSH0 SWAP1 SLOAD SWAP1 PUSH2 0x100 EXP SWAP1 DIV PUSH20 0xFFFFFFFFFFFFFFFFFFFFFFFFFFFFFFFFFFFFFFFF AND PUSH20 0xFFFFFFFFFFFFFFFFFFFFFFFFFFFFFFFFFFFFFFFF AND CALLER PUSH20 0xFFFFFFFFFFFFFFFFFFFFFFFFFFFFFFFFFFFFFFFF AND EQ PUSH2 0x545 JUMPI PUSH1 0x40 MLOAD PUSH32 0x8C379A000000000000000000000000000000000000000000000000000000000 DUP2 MSTORE PUSH1 0x4 ADD PUSH2 0x53C SWAP1 PUSH2 0x1363 JUMP JUMPDEST PUSH1 0x40 MLOAD DUP1 SWAP2 SUB SWAP1 REVERT JUMPDEST PUSH0 SELFBALANCE SWAP1 POP PUSH0 DUP2 GT PUSH2 0x58B JUMPI PUSH1 0x40 MLOAD PUSH32 0x8C379A000000000000000000000000000000000000000000000000000000000 DUP2 MSTORE PUSH1 0x4 ADD PUSH2 0x582 SWAP1 PUSH2 0x13CB JUMP JUMPDEST PUSH1 0x40 MLOAD DUP1 SWAP2 SUB SWAP1 REVERT JUMPDEST PUSH0 PUSH0 SWAP1 SLOAD SWAP1 PUSH2 0x100 EXP SWAP1 DIV PUSH20 0xFFFFFFFFFFFFFFFFFFFFFFFFFFFFFFFFFFFFFFFF AND PUSH20 0xFFFFFFFFFFFFFFFFFFFFFFFFFFFFFFFFFFFFFFFF AND PUSH2 0x8FC DUP3 SWAP1 DUP2 ISZERO MUL SWAP1 PUSH1 0x40 MLOAD PUSH0 PUSH1 0x40 MLOAD DUP1 DUP4 SUB DUP2 DUP6 DUP9 DUP9 CALL SWAP4 POP POP POP POP ISZERO DUP1 ISZERO PUSH2 0x5EE JUMPI RETURNDATASIZE PUSH0 PUSH0 RETURNDATACOPY RETURNDATASIZE PUSH0 REVERT JUMPDEST POP PUSH0 PUSH0 SWAP1 SLOAD SWAP1 PUSH2 0x100 EXP SWAP1 DIV PUSH20 0xFFFFFFFFFFFFFFFFFFFFFFFFFFFFFFFFFFFFFFFF AND PUSH20 0xFFFFFFFFFFFFFFFFFFFFFFFFFFFFFFFFFFFFFFFF AND PUSH32 0x7FCF532C15F0A6DB0BD6D0E038BEA71D30D808C7D98CB3BF7268A95BF5081B65 DUP3 PUSH1 0x40 MLOAD PUSH2 0x655 SWAP2 SWAP1 PUSH2 0xEB9 JUMP JUMPDEST PUSH1 0x40 MLOAD DUP1 SWAP2 SUB SWAP1 LOG2 POP JUMP JUMPDEST PUSH0 PUSH1 0x1 PUSH0 DUP4 PUSH20 0xFFFFFFFFFFFFFFFFFFFFFFFFFFFFFFFFFFFFFFFF AND PUSH20 0xFFFFFFFFFFFFFFFFFFFFFFFFFFFFFFFFFFFFFFFF AND DUP2 MSTORE PUSH1 0x20 ADD SWAP1 DUP2 MSTORE PUSH1 0x20 ADD PUSH0 KECCAK256 SLOAD SWAP1 POP SWAP2 SWAP1 POP JUMP JUMPDEST PUSH1 0x60 PUSH1 0x2 DUP1 SLOAD DUP1 PUSH1 0x20 MUL PUSH1 0x20 ADD PUSH1 0x40 MLOAD SWAP1 DUP2 ADD PUSH1 0x40 MSTORE DUP1 SWAP3 SWAP2 SWAP1 DUP2 DUP2 MSTORE PUSH1 0x20 ADD DUP3 DUP1 SLOAD DUP1 ISZERO PUSH2 0x727 JUMPI PUSH1 0x20 MUL DUP3 ADD SWAP2 SWAP1 PUSH0 MSTORE PUSH1 0x20 PUSH0 KECCAK256 SWAP1 JUMPDEST DUP2 PUSH0 SWAP1 SLOAD SWAP1 PUSH2 0x100 EXP SWAP1 DIV PUSH20 0xFFFFFFFFFFFFFFFFFFFFFFFFFFFFFFFFFFFFFFFF AND PUSH20 0xFFFFFFFFFFFFFFFFFFFFFFFFFFFFFFFFFFFFFFFF AND DUP2 MSTORE PUSH1 0x20 ADD SWAP1 PUSH1 0x1 ADD SWAP1 DUP1 DUP4 GT PUSH2 0x6DE JUMPI JUMPDEST POP POP POP POP POP SWAP1 POP SWAP1 JUMP JUMPDEST PUSH0 PUSH0 SWAP1 SLOAD SWAP1 PUSH2 0x100 EXP SWAP1 DIV PUSH20 0xFFFFFFFFFFFFFFFFFFFFFFFFFFFFFFFFFFFFFFFF AND DUP2 JUMP JUMPDEST PUSH0 PUSH1 0x2 DUP1 SLOAD SWAP1 POP SWAP1 POP SWAP1 JUMP JUMPDEST PUSH1 0x2 DUP2 DUP2 SLOAD DUP2 LT PUSH2 0x770 JUMPI PUSH0 DUP1 REVERT JUMPDEST SWAP1 PUSH0 MSTORE PUSH1 0x20 PUSH0 KECCAK256 ADD PUSH0 SWAP2 POP SLOAD SWAP1 PUSH2 0x100 EXP SWAP1 DIV PUSH20 0xFFFFFFFFFFFFFFFFFFFFFFFFFFFFFFFFFFFFFFFF AND DUP2 JUMP JUMPDEST PUSH1 0x1 PUSH1 0x20 MSTORE DUP1 PUSH0 MSTORE PUSH1 0x40 PUSH0 KECCAK256 PUSH0 SWAP2 POP SWAP1 POP SLOAD DUP2 JUMP JUMPDEST PUSH1 0x60 PUSH0 DUP3 GT PUSH2 0x7F5 JUMPI PUSH1 0x40 MLOAD PUSH32 0x8C379A000000000000000000000000000000000000000000000000000000000 DUP2 MSTORE PUSH1 0x4 ADD PUSH2 0x7EC SWAP1 PUSH2 0x1433 JUMP JUMPDEST PUSH1 0x40 MLOAD DUP1 SWAP2 SUB SWAP1 REVERT JUMPDEST PUSH0 PUSH1 0x3 DUP1 SLOAD SWAP1 POP DUP4 GT PUSH2 0x808 JUMPI DUP3 PUSH2 0x80F JUMP JUMPDEST PUSH1 0x3 DUP1 SLOAD SWAP1 POP JUMPDEST SWAP1 POP PUSH0 DUP2 PUSH8 0xFFFFFFFFFFFFFFFF DUP2 GT ISZERO PUSH2 0x82C JUMPI PUSH2 0x82B PUSH2 0x1451 JUMP JUMPDEST JUMPDEST PUSH1 0x40 MLOAD SWAP1 DUP1 DUP3 MSTORE DUP1 PUSH1 0x20 MUL PUSH1 0x20 ADD DUP3 ADD PUSH1 0x40 MSTORE DUP1 ISZERO PUSH2 0x865 JUMPI DUP2 PUSH1 0x20 ADD JUMPDEST PUSH2 0x852 PUSH2 0xE73 JUMP JUMPDEST DUP2 MSTORE PUSH1 0x20 ADD SWAP1 PUSH1 0x1 SWAP1 SUB SWAP1 DUP2 PUSH2 0x84A JUMPI SWAP1 POP JUMPDEST POP SWAP1 POP PUSH0 PUSH0 SWAP1 POP JUMPDEST DUP3 DUP2 LT ISZERO PUSH2 0x929 JUMPI PUSH1 0x3 DUP2 DUP2 SLOAD DUP2 LT PUSH2 0x889 JUMPI PUSH2 0x888 PUSH2 0x147E JUMP JUMPDEST JUMPDEST SWAP1 PUSH0 MSTORE PUSH1 0x20 PUSH0 KECCAK256 SWAP1 PUSH1 0x2 MUL ADD PUSH1 0x40 MLOAD DUP1 PUSH1 0x40 ADD PUSH1 0x40 MSTORE SWAP1 DUP2 PUSH0 DUP3 ADD PUSH0 SWAP1 SLOAD SWAP1 PUSH2 0x100 EXP SWAP1 DIV PUSH20 0xFFFFFFFFFFFFFFFFFFFFFFFFFFFFFFFFFFFFFFFF AND PUSH20 0xFFFFFFFFFFFFFFFFFFFFFFFFFFFFFFFFFFFFFFFF AND PUSH20 0xFFFFFFFFFFFFFFFFFFFFFFFFFFFFFFFFFFFFFFFF AND DUP2 MSTORE PUSH1 0x20 ADD PUSH1 0x1 DUP3 ADD SLOAD DUP2 MSTORE POP POP DUP3 DUP3 DUP2 MLOAD DUP2 LT PUSH2 0x911 JUMPI PUSH2 0x910 PUSH2 0x147E JUMP JUMPDEST JUMPDEST PUSH1 0x20 MUL PUSH1 0x20 ADD ADD DUP2 SWAP1 MSTORE POP DUP1 DUP1 PUSH1 0x1 ADD SWAP2 POP POP PUSH2 0x86D JUMP JUMPDEST POP DUP1 SWAP3 POP POP POP SWAP2 SWAP1 POP JUMP JUMPDEST PUSH0 PUSH0 SWAP1 POP JUMPDEST PUSH1 0x3 DUP1 SLOAD SWAP1 POP DUP2 LT ISZERO PUSH2 0xAE2 JUMPI DUP3 PUSH20 0xFFFFFFFFFFFFFFFFFFFFFFFFFFFFFFFFFFFFFFFF AND PUSH1 0x3 DUP3 DUP2 SLOAD DUP2 LT PUSH2 0x971 JUMPI PUSH2 0x970 PUSH2 0x147E JUMP JUMPDEST JUMPDEST SWAP1 PUSH0 MSTORE PUSH1 0x20 PUSH0 KECCAK256 SWAP1 PUSH1 0x2 MUL ADD PUSH0 ADD PUSH0 SWAP1 SLOAD SWAP1 PUSH2 0x100 EXP SWAP1 DIV PUSH20 0xFFFFFFFFFFFFFFFFFFFFFFFFFFFFFFFFFFFFFFFF AND PUSH20 0xFFFFFFFFFFFFFFFFFFFFFFFFFFFFFFFFFFFFFFFF AND SUB PUSH2 0xAD5 JUMPI PUSH1 0x3 PUSH1 0x1 PUSH1 0x3 DUP1 SLOAD SWAP1 POP PUSH2 0x9CE SWAP2 SWAP1 PUSH2 0x14AB JUMP JUMPDEST DUP2 SLOAD DUP2 LT PUSH2 0x9DF JUMPI PUSH2 0x9DE PUSH2 0x147E JUMP JUMPDEST JUMPDEST SWAP1 PUSH0 MSTORE PUSH1 0x20 PUSH0 KECCAK256 SWAP1 PUSH1 0x2 MUL ADD PUSH1 0x3 DUP3 DUP2 SLOAD DUP2 LT PUSH2 0x9FF JUMPI PUSH2 0x9FE PUSH2 0x147E JUMP JUMPDEST JUMPDEST SWAP1 PUSH0 MSTORE PUSH1 0x20 PUSH0 KECCAK256 SWAP1 PUSH1 0x2 MUL ADD PUSH0 DUP3 ADD PUSH0 SWAP1 SLOAD SWAP1 PUSH2 0x100 EXP SWAP1 DIV PUSH20 0xFFFFFFFFFFFFFFFFFFFFFFFFFFFFFFFFFFFFFFFF AND DUP2 PUSH0 ADD PUSH0 PUSH2 0x100 EXP DUP2 SLOAD DUP2 PUSH20 0xFFFFFFFFFFFFFFFFFFFFFFFFFFFFFFFFFFFFFFFF MUL NOT AND SWAP1 DUP4 PUSH20 0xFFFFFFFFFFFFFFFFFFFFFFFFFFFFFFFFFFFFFFFF AND MUL OR SWAP1 SSTORE POP PUSH1 0x1 DUP3 ADD SLOAD DUP2 PUSH1 0x1 ADD SSTORE SWAP1 POP POP PUSH1 0x3 DUP1 SLOAD DUP1 PUSH2 0xA8D JUMPI PUSH2 0xA8C PUSH2 0x14DE JUMP JUMPDEST JUMPDEST PUSH1 0x1 SWAP1 SUB DUP2 DUP2 SWAP1 PUSH0 MSTORE PUSH1 0x20 PUSH0 KECCAK256 SWAP1 PUSH1 0x2 MUL ADD PUSH0 PUSH0 DUP3 ADD PUSH0 PUSH2 0x100 EXP DUP2 SLOAD SWAP1 PUSH20 0xFFFFFFFFFFFFFFFFFFFFFFFFFFFFFFFFFFFFFFFF MUL NOT AND SWAP1 SSTORE PUSH1 0x1 DUP3 ADD PUSH0 SWAP1 SSTORE POP POP SWAP1 SSTORE PUSH2 0xAE2 JUMP JUMPDEST DUP1 DUP1 PUSH1 0x1 ADD SWAP2 POP POP PUSH2 0x939 JUMP JUMPDEST POP PUSH1 0x3 PUSH1 0x40 MLOAD DUP1 PUSH1 0x40 ADD PUSH1 0x40 MSTORE DUP1 DUP5 PUSH20 0xFFFFFFFFFFFFFFFFFFFFFFFFFFFFFFFFFFFFFFFF AND DUP2 MSTORE PUSH1 0x20 ADD DUP4 DUP2 MSTORE POP SWAP1 DUP1 PUSH1 0x1 DUP2 SLOAD ADD DUP1 DUP3 SSTORE DUP1 SWAP2 POP POP PUSH1 0x1 SWAP1 SUB SWAP1 PUSH0 MSTORE PUSH1 0x20 PUSH0 KECCAK256 SWAP1 PUSH1 0x2 MUL ADD PUSH0 SWAP1 SWAP2 SWAP1 SWAP2 SWAP1 SWAP2 POP PUSH0 DUP3 ADD MLOAD DUP2 PUSH0 ADD PUSH0 PUSH2 0x100 EXP DUP2 SLOAD DUP2 PUSH20 0xFFFFFFFFFFFFFFFFFFFFFFFFFFFFFFFFFFFFFFFF MUL NOT AND SWAP1 DUP4 PUSH20 0xFFFFFFFFFFFFFFFFFFFFFFFFFFFFFFFFFFFFFFFF AND MUL OR SWAP1 SSTORE POP PUSH1 0x20 DUP3 ADD MLOAD DUP2 PUSH1 0x1 ADD SSTORE POP POP PUSH0 PUSH0 SWAP1 POP JUMPDEST PUSH1 0x1 PUSH1 0x3 DUP1 SLOAD SWAP1 POP PUSH2 0xB9D SWAP2 SWAP1 PUSH2 0x14AB JUMP JUMPDEST DUP2 LT ISZERO PUSH2 0xE0A JUMPI PUSH0 PUSH0 SWAP1 POP JUMPDEST PUSH1 0x1 DUP3 PUSH1 0x3 DUP1 SLOAD SWAP1 POP PUSH2 0xBBC SWAP2 SWAP1 PUSH2 0x14AB JUMP JUMPDEST PUSH2 0xBC6 SWAP2 SWAP1 PUSH2 0x14AB JUMP JUMPDEST DUP2 LT ISZERO PUSH2 0xDFC JUMPI PUSH1 0x3 PUSH1 0x1 DUP3 PUSH2 0xBDC SWAP2 SWAP1 PUSH2 0x12E6 JUMP JUMPDEST DUP2 SLOAD DUP2 LT PUSH2 0xBED JUMPI PUSH2 0xBEC PUSH2 0x147E JUMP JUMPDEST JUMPDEST SWAP1 PUSH0 MSTORE PUSH1 0x20 PUSH0 KECCAK256 SWAP1 PUSH1 0x2 MUL ADD PUSH1 0x1 ADD SLOAD PUSH1 0x3 DUP3 DUP2 SLOAD DUP2 LT PUSH2 0xC11 JUMPI PUSH2 0xC10 PUSH2 0x147E JUMP JUMPDEST JUMPDEST SWAP1 PUSH0 MSTORE PUSH1 0x20 PUSH0 KECCAK256 SWAP1 PUSH1 0x2 MUL ADD PUSH1 0x1 ADD SLOAD LT ISZERO PUSH2 0xDEF JUMPI PUSH0 PUSH1 0x3 DUP3 DUP2 SLOAD DUP2 LT PUSH2 0xC3C JUMPI PUSH2 0xC3B PUSH2 0x147E JUMP JUMPDEST JUMPDEST SWAP1 PUSH0 MSTORE PUSH1 0x20 PUSH0 KECCAK256 SWAP1 PUSH1 0x2 MUL ADD PUSH1 0x40 MLOAD DUP1 PUSH1 0x40 ADD PUSH1 0x40 MSTORE SWAP1 DUP2 PUSH0 DUP3 ADD PUSH0 SWAP1 SLOAD SWAP1 PUSH2 0x100 EXP SWAP1 DIV PUSH20 0xFFFFFFFFFFFFFFFFFFFFFFFFFFFFFFFFFFFFFFFF AND PUSH20 0xFFFFFFFFFFFFFFFFFFFFFFFFFFFFFFFFFFFFFFFF AND PUSH20 0xFFFFFFFFFFFFFFFFFFFFFFFFFFFFFFFFFFFFFFFF AND DUP2 MSTORE PUSH1 0x20 ADD PUSH1 0x1 DUP3 ADD SLOAD DUP2 MSTORE POP POP SWAP1 POP PUSH1 0x3 PUSH1 0x1 DUP4 PUSH2 0xCC2 SWAP2 SWAP1 PUSH2 0x12E6 JUMP JUMPDEST DUP2 SLOAD DUP2 LT PUSH2 0xCD3 JUMPI PUSH2 0xCD2 PUSH2 0x147E JUMP JUMPDEST JUMPDEST SWAP1 PUSH0 MSTORE PUSH1 0x20 PUSH0 KECCAK256 SWAP1 PUSH1 0x2 MUL ADD PUSH1 0x3 DUP4 DUP2 SLOAD DUP2 LT PUSH2 0xCF3 JUMPI PUSH2 0xCF2 PUSH2 0x147E JUMP JUMPDEST JUMPDEST SWAP1 PUSH0 MSTORE PUSH1 0x20 PUSH0 KECCAK256 SWAP1 PUSH1 0x2 MUL ADD PUSH0 DUP3 ADD PUSH0 SWAP1 SLOAD SWAP1 PUSH2 0x100 EXP SWAP1 DIV PUSH20 0xFFFFFFFFFFFFFFFFFFFFFFFFFFFFFFFFFFFFFFFF AND DUP2 PUSH0 ADD PUSH0 PUSH2 0x100 EXP DUP2 SLOAD DUP2 PUSH20 0xFFFFFFFFFFFFFFFFFFFFFFFFFFFFFFFFFFFFFFFF MUL NOT AND SWAP1 DUP4 PUSH20 0xFFFFFFFFFFFFFFFFFFFFFFFFFFFFFFFFFFFFFFFF AND MUL OR SWAP1 SSTORE POP PUSH1 0x1 DUP3 ADD SLOAD DUP2 PUSH1 0x1 ADD SSTORE SWAP1 POP POP DUP1 PUSH1 0x3 PUSH1 0x1 DUP5 PUSH2 0xD7F SWAP2 SWAP1 PUSH2 0x12E6 JUMP JUMPDEST DUP2 SLOAD DUP2 LT PUSH2 0xD90 JUMPI PUSH2 0xD8F PUSH2 0x147E JUMP JUMPDEST JUMPDEST SWAP1 PUSH0 MSTORE PUSH1 0x20 PUSH0 KECCAK256 SWAP1 PUSH1 0x2 MUL ADD PUSH0 DUP3 ADD MLOAD DUP2 PUSH0 ADD PUSH0 PUSH2 0x100 EXP DUP2 SLOAD DUP2 PUSH20 0xFFFFFFFFFFFFFFFFFFFFFFFFFFFFFFFFFFFFFFFF MUL NOT AND SWAP1 DUP4 PUSH20 0xFFFFFFFFFFFFFFFFFFFFFFFFFFFFFFFFFFFFFFFF AND MUL OR SWAP1 SSTORE POP PUSH1 0x20 DUP3 ADD MLOAD DUP2 PUSH1 0x1 ADD SSTORE SWAP1 POP POP POP JUMPDEST DUP1 DUP1 PUSH1 0x1 ADD SWAP2 POP POP PUSH2 0xBA9 JUMP JUMPDEST POP DUP1 DUP1 PUSH1 0x1 ADD SWAP2 POP POP PUSH2 0xB8B JUMP JUMPDEST POP PUSH1 0x64 PUSH1 0x3 DUP1 SLOAD SWAP1 POP GT ISZERO PUSH2 0xE6F JUMPI PUSH1 0x3 DUP1 SLOAD DUP1 PUSH2 0xE2B JUMPI PUSH2 0xE2A PUSH2 0x14DE JUMP JUMPDEST JUMPDEST PUSH1 0x1 SWAP1 SUB DUP2 DUP2 SWAP1 PUSH0 MSTORE PUSH1 0x20 PUSH0 KECCAK256 SWAP1 PUSH1 0x2 MUL ADD PUSH0 PUSH0 DUP3 ADD PUSH0 PUSH2 0x100 EXP DUP2 SLOAD SWAP1 PUSH20 0xFFFFFFFFFFFFFFFFFFFFFFFFFFFFFFFFFFFFFFFF MUL NOT AND SWAP1 SSTORE PUSH1 0x1 DUP3 ADD PUSH0 SWAP1 SSTORE POP POP SWAP1 SSTORE JUMPDEST POP POP JUMP JUMPDEST PUSH1 0x40 MLOAD DUP1 PUSH1 0x40 ADD PUSH1 0x40 MSTORE DUP1 PUSH0 PUSH20 0xFFFFFFFFFFFFFFFFFFFFFFFFFFFFFFFFFFFFFFFF AND DUP2 MSTORE PUSH1 0x20 ADD PUSH0 DUP2 MSTORE POP SWAP1 JUMP JUMPDEST PUSH0 DUP2 SWAP1 POP SWAP2 SWAP1 POP JUMP JUMPDEST PUSH2 0xEB3 DUP2 PUSH2 0xEA1 JUMP JUMPDEST DUP3 MSTORE POP POP JUMP JUMPDEST PUSH0 PUSH1 0x20 DUP3 ADD SWAP1 POP PUSH2 0xECC PUSH0 DUP4 ADD DUP5 PUSH2 0xEAA JUMP JUMPDEST SWAP3 SWAP2 POP POP JUMP JUMPDEST PUSH0 PUSH0 REVERT JUMPDEST PUSH0 PUSH20 0xFFFFFFFFFFFFFFFFFFFFFFFFFFFFFFFFFFFFFFFF DUP3 AND SWAP1 POP SWAP2 SWAP1 POP JUMP JUMPDEST PUSH0 PUSH2 0xEFF DUP3 PUSH2 0xED6 JUMP JUMPDEST SWAP1 POP SWAP2 SWAP1 POP JUMP JUMPDEST PUSH2 0xF0F DUP2 PUSH2 0xEF5 JUMP JUMPDEST DUP2 EQ PUSH2 0xF19 JUMPI PUSH0 PUSH0 REVERT JUMPDEST POP JUMP JUMPDEST PUSH0 DUP2 CALLDATALOAD SWAP1 POP PUSH2 0xF2A DUP2 PUSH2 0xF06 JUMP JUMPDEST SWAP3 SWAP2 POP POP JUMP JUMPDEST PUSH0 PUSH1 0x20 DUP3 DUP5 SUB SLT ISZERO PUSH2 0xF45 JUMPI PUSH2 0xF44 PUSH2 0xED2 JUMP JUMPDEST JUMPDEST PUSH0 PUSH2 0xF52 DUP5 DUP3 DUP6 ADD PUSH2 0xF1C JUMP JUMPDEST SWAP2 POP POP SWAP3 SWAP2 POP POP JUMP JUMPDEST PUSH0 DUP2 MLOAD SWAP1 POP SWAP2 SWAP1 POP JUMP JUMPDEST PUSH0 DUP3 DUP3 MSTORE PUSH1 0x20 DUP3 ADD SWAP1 POP SWAP3 SWAP2 POP POP JUMP JUMPDEST PUSH0 DUP2 SWAP1 POP PUSH1 0x20 DUP3 ADD SWAP1 POP SWAP2 SWAP1 POP JUMP JUMPDEST PUSH2 0xF8D DUP2 PUSH2 0xEF5 JUMP JUMPDEST DUP3 MSTORE POP POP JUMP JUMPDEST PUSH0 PUSH2 0xF9E DUP4 DUP4 PUSH2 0xF84 JUMP JUMPDEST PUSH1 0x20 DUP4 ADD SWAP1 POP SWAP3 SWAP2 POP POP JUMP JUMPDEST PUSH0 PUSH1 0x20 DUP3 ADD SWAP1 POP SWAP2 SWAP1 POP JUMP JUMPDEST PUSH0 PUSH2 0xFC0 DUP3 PUSH2 0xF5B JUMP JUMPDEST PUSH2 0xFCA DUP2 DUP6 PUSH2 0xF65 JUMP JUMPDEST SWAP4 POP PUSH2 0xFD5 DUP4 PUSH2 0xF75 JUMP JUMPDEST DUP1 PUSH0 JUMPDEST DUP4 DUP2 LT ISZERO PUSH2 0x1005 JUMPI DUP2 MLOAD PUSH2 0xFEC DUP9 DUP3 PUSH2 0xF93 JUMP JUMPDEST SWAP8 POP PUSH2 0xFF7 DUP4 PUSH2 0xFAA JUMP JUMPDEST SWAP3 POP POP PUSH1 0x1 DUP2 ADD SWAP1 POP PUSH2 0xFD8 JUMP JUMPDEST POP DUP6 SWAP4 POP POP POP POP SWAP3 SWAP2 POP POP JUMP JUMPDEST PUSH0 PUSH1 0x20 DUP3 ADD SWAP1 POP DUP2 DUP2 SUB PUSH0 DUP4 ADD MSTORE PUSH2 0x102A DUP2 DUP5 PUSH2 0xFB6 JUMP JUMPDEST SWAP1 POP SWAP3 SWAP2 POP POP JUMP JUMPDEST PUSH2 0x103B DUP2 PUSH2 0xEF5 JUMP JUMPDEST DUP3 MSTORE POP POP JUMP JUMPDEST PUSH0 PUSH1 0x20 DUP3 ADD SWAP1 POP PUSH2 0x1054 PUSH0 DUP4 ADD DUP5 PUSH2 0x1032 JUMP JUMPDEST SWAP3 SWAP2 POP POP JUMP JUMPDEST PUSH2 0x1063 DUP2 PUSH2 0xEA1 JUMP JUMPDEST DUP2 EQ PUSH2 0x106D JUMPI PUSH0 PUSH0 REVERT JUMPDEST POP JUMP JUMPDEST PUSH0 DUP2 CALLDATALOAD SWAP1 POP PUSH2 0x107E DUP2 PUSH2 0x105A JUMP JUMPDEST SWAP3 SWAP2 POP POP JUMP JUMPDEST PUSH0 PUSH1 0x20 DUP3 DUP5 SUB SLT ISZERO PUSH2 0x1099 JUMPI PUSH2 0x1098 PUSH2 0xED2 JUMP JUMPDEST JUMPDEST PUSH0 PUSH2 0x10A6 DUP5 DUP3 DUP6 ADD PUSH2 0x1070 JUMP JUMPDEST SWAP2 POP POP SWAP3 SWAP2 POP POP JUMP JUMPDEST PUSH0 DUP2 MLOAD SWAP1 POP SWAP2 SWAP1 POP JUMP JUMPDEST PUSH0 DUP3 DUP3 MSTORE PUSH1 0x20 DUP3 ADD SWAP1 POP SWAP3 SWAP2 POP POP JUMP JUMPDEST PUSH0 DUP2 SWAP1 POP PUSH1 0x20 DUP3 ADD SWAP1 POP SWAP2 SWAP1 POP JUMP JUMPDEST PUSH2 0x10E1 DUP2 PUSH2 0xEA1 JUMP JUMPDEST DUP3 MSTORE POP POP JUMP JUMPDEST PUSH1 0x40 DUP3 ADD PUSH0 DUP3 ADD MLOAD PUSH2 0x10FB PUSH0 DUP6 ADD DUP3 PUSH2 0xF84 JUMP JUMPDEST POP PUSH1 0x20 DUP3 ADD MLOAD PUSH2 0x110E PUSH1 0x20 DUP6 ADD DUP3 PUSH2 0x10D8 JUMP JUMPDEST POP POP POP POP JUMP JUMPDEST PUSH0 PUSH2 0x111F DUP4 DUP4 PUSH2 0x10E7 JUMP JUMPDEST PUSH1 0x40 DUP4 ADD SWAP1 POP SWAP3 SWAP2 POP POP JUMP JUMPDEST PUSH0 PUSH1 0x20 DUP3 ADD SWAP1 POP SWAP2 SWAP1 POP JUMP JUMPDEST PUSH0 PUSH2 0x1141 DUP3 PUSH2 0x10AF JUMP JUMPDEST PUSH2 0x114B DUP2 DUP6 PUSH2 0x10B9 JUMP JUMPDEST SWAP4 POP PUSH2 0x1156 DUP4 PUSH2 0x10C9 JUMP JUMPDEST DUP1 PUSH0 JUMPDEST DUP4 DUP2 LT ISZERO PUSH2 0x1186 JUMPI DUP2 MLOAD PUSH2 0x116D DUP9 DUP3 PUSH2 0x1114 JUMP JUMPDEST SWAP8 POP PUSH2 0x1178 DUP4 PUSH2 0x112B JUMP JUMPDEST SWAP3 POP POP PUSH1 0x1 DUP2 ADD SWAP1 POP PUSH2 0x1159 JUMP JUMPDEST POP DUP6 SWAP4 POP POP POP POP SWAP3 SWAP2 POP POP JUMP JUMPDEST PUSH0 PUSH1 0x20 DUP3 ADD SWAP1 POP DUP2 DUP2 SUB PUSH0 DUP4 ADD MSTORE PUSH2 0x11AB DUP2 DUP5 PUSH2 0x1137 JUMP JUMPDEST SWAP1 POP SWAP3 SWAP2 POP POP JUMP JUMPDEST PUSH0 DUP3 DUP3 MSTORE PUSH1 0x20 DUP3 ADD SWAP1 POP SWAP3 SWAP2 POP POP JUMP JUMPDEST PUSH32 0x43616D706169676E206578706972656400000000000000000000000000000000 PUSH0 DUP3 ADD MSTORE POP JUMP JUMPDEST PUSH0 PUSH2 0x11F7 PUSH1 0x10 DUP4 PUSH2 0x11B3 JUMP JUMPDEST SWAP2 POP PUSH2 0x1202 DUP3 PUSH2 0x11C3 JUMP JUMPDEST PUSH1 0x20 DUP3 ADD SWAP1 POP SWAP2 SWAP1 POP JUMP JUMPDEST PUSH0 PUSH1 0x20 DUP3 ADD SWAP1 POP DUP2 DUP2 SUB PUSH0 DUP4 ADD MSTORE PUSH2 0x1224 DUP2 PUSH2 0x11EB JUMP JUMPDEST SWAP1 POP SWAP2 SWAP1 POP JUMP JUMPDEST PUSH32 0x446F6E6174696F6E20616D6F756E74206D757374206265206772656174657220 PUSH0 DUP3 ADD MSTORE PUSH32 0x7468616E20300000000000000000000000000000000000000000000000000000 PUSH1 0x20 DUP3 ADD MSTORE POP JUMP JUMPDEST PUSH0 PUSH2 0x1285 PUSH1 0x26 DUP4 PUSH2 0x11B3 JUMP JUMPDEST SWAP2 POP PUSH2 0x1290 DUP3 PUSH2 0x122B JUMP JUMPDEST PUSH1 0x40 DUP3 ADD SWAP1 POP SWAP2 SWAP1 POP JUMP JUMPDEST PUSH0 PUSH1 0x20 DUP3 ADD SWAP1 POP DUP2 DUP2 SUB PUSH0 DUP4 ADD MSTORE PUSH2 0x12B2 DUP2 PUSH2 0x1279 JUMP JUMPDEST SWAP1 POP SWAP2 SWAP1 POP JUMP JUMPDEST PUSH32 0x4E487B7100000000000000000000000000000000000000000000000000000000 PUSH0 MSTORE PUSH1 0x11 PUSH1 0x4 MSTORE PUSH1 0x24 PUSH0 REVERT JUMPDEST PUSH0 PUSH2 0x12F0 DUP3 PUSH2 0xEA1 JUMP JUMPDEST SWAP2 POP PUSH2 0x12FB DUP4 PUSH2 0xEA1 JUMP JUMPDEST SWAP3 POP DUP3 DUP3 ADD SWAP1 POP DUP1 DUP3 GT ISZERO PUSH2 0x1313 JUMPI PUSH2 0x1312 PUSH2 0x12B9 JUMP JUMPDEST JUMPDEST SWAP3 SWAP2 POP POP JUMP JUMPDEST PUSH32 0x4F6E6C79206F776E65722063616E207769746864726177000000000000000000 PUSH0 DUP3 ADD MSTORE POP JUMP JUMPDEST PUSH0 PUSH2 0x134D PUSH1 0x17 DUP4 PUSH2 0x11B3 JUMP JUMPDEST SWAP2 POP PUSH2 0x1358 DUP3 PUSH2 0x1319 JUMP JUMPDEST PUSH1 0x20 DUP3 ADD SWAP1 POP SWAP2 SWAP1 POP JUMP JUMPDEST PUSH0 PUSH1 0x20 DUP3 ADD SWAP1 POP DUP2 DUP2 SUB PUSH0 DUP4 ADD MSTORE PUSH2 0x137A DUP2 PUSH2 0x1341 JUMP JUMPDEST SWAP1 POP SWAP2 SWAP1 POP JUMP JUMPDEST PUSH32 0x4E6F2066756E647320617661696C61626C6520746F2077697468647261770000 PUSH0 DUP3 ADD MSTORE POP JUMP JUMPDEST PUSH0 PUSH2 0x13B5 PUSH1 0x1E DUP4 PUSH2 0x11B3 JUMP JUMPDEST SWAP2 POP PUSH2 0x13C0 DUP3 PUSH2 0x1381 JUMP JUMPDEST PUSH1 0x20 DUP3 ADD SWAP1 POP SWAP2 SWAP1 POP JUMP JUMPDEST PUSH0 PUSH1 0x20 DUP3 ADD SWAP1 POP DUP2 DUP2 SUB PUSH0 DUP4 ADD MSTORE PUSH2 0x13E2 DUP2 PUSH2 0x13A9 JUMP JUMPDEST SWAP1 POP SWAP2 SWAP1 POP JUMP JUMPDEST PUSH32 0x6E206D7573742062652067726561746572207468616E20300000000000000000 PUSH0 DUP3 ADD MSTORE POP JUMP JUMPDEST PUSH0 PUSH2 0x141D PUSH1 0x18 DUP4 PUSH2 0x11B3 JUMP JUMPDEST SWAP2 POP PUSH2 0x1428 DUP3 PUSH2 0x13E9 JUMP JUMPDEST PUSH1 0x20 DUP3 ADD SWAP1 POP SWAP2 SWAP1 POP JUMP JUMPDEST PUSH0 PUSH1 0x20 DUP3 ADD SWAP1 POP DUP2 DUP2 SUB PUSH0 DUP4 ADD MSTORE PUSH2 0x144A DUP2 PUSH2 0x1411 JUMP JUMPDEST SWAP1 POP SWAP2 SWAP1 POP JUMP JUMPDEST PUSH32 0x4E487B7100000000000000000000000000000000000000000000000000000000 PUSH0 MSTORE PUSH1 0x41 PUSH1 0x4 MSTORE PUSH1 0x24 PUSH0 REVERT JUMPDEST PUSH32 0x4E487B7100000000000000000000000000000000000000000000000000000000 PUSH0 MSTORE PUSH1 0x32 PUSH1 0x4 MSTORE PUSH1 0x24 PUSH0 REVERT JUMPDEST PUSH0 PUSH2 0x14B5 DUP3 PUSH2 0xEA1 JUMP JUMPDEST SWAP2 POP PUSH2 0x14C0 DUP4 PUSH2 0xEA1 JUMP JUMPDEST SWAP3 POP DUP3 DUP3 SUB SWAP1 POP DUP2 DUP2 GT ISZERO PUSH2 0x14D8 JUMPI PUSH2 0x14D7 PUSH2 0x12B9 JUMP JUMPDEST JUMPDEST SWAP3 SWAP2 POP POP JUMP JUMPDEST PUSH32 0x4E487B7100000000000000000000000000000000000000000000000000000000 PUSH0 MSTORE PUSH1 0x31 PUSH1 0x4 MSTORE PUSH1 0x24 PUSH0 REVERT INVALID LOG2 PUSH5 0x6970667358 0x22 SLT KECCAK256 0xE8 NUMBER 0xE0 LOG0 0xE3 0x2D PUSH14 0x72F8E58B5EA5ED4FA92B91397788 0xB5 EXP LOG1 0xDC 0xE0 ADD PUSH19 0x4EFDE86F64736F6C634300081B003300000000 "
				},
				"gasEstimates": {
					"creation": {
						"codeDepositCost": "1088200",
						"executionCost": "infinite",
						"totalCost": "infinite"
					},
					"external": {
						"donate()": "infinite",
						"donations(address)": "2868",
						"donators(uint256)": "4988",
						"endTime()": "2448",
						"getAllDonators()": "infinite",
						"getBalance()": "335",
						"getDonation(address)": "2896",
						"getDonatorCount()": "2462",
						"getTopDonors(uint256)": "infinite",
						"owner()": "2507",
						"withdraw()": "infinite"
					},
					"internal": {
						"_updateRanking(address,uint256)": "infinite"
					}
				},
				"methodIdentifiers": {
					"donate()": "ed88c68e",
					"donations(address)": "cc6cb19a",
					"donators(uint256)": "ac62f566",
					"endTime()": "3197cbb6",
					"getAllDonators()": "85aae382",
					"getBalance()": "12065fe0",
					"getDonation(address)": "410a1d32",
					"getDonatorCount()": "9171b1a9",
					"getTopDonors(uint256)": "f5d1282b",
					"owner()": "8da5cb5b",
					"withdraw()": "3ccfd60b"
				}
			},
			"storageLayout": {
				"storage": [
					{
						"astId": 3,
						"contract": "beggingcontract.sol:BeggingContract",
						"label": "owner",
						"offset": 0,
						"slot": "0",
						"type": "t_address"
					},
					{
						"astId": 7,
						"contract": "beggingcontract.sol:BeggingContract",
						"label": "donations",
						"offset": 0,
						"slot": "1",
						"type": "t_mapping(t_address,t_uint256)"
					},
					{
						"astId": 10,
						"contract": "beggingcontract.sol:BeggingContract",
						"label": "donators",
						"offset": 0,
						"slot": "2",
						"type": "t_array(t_address)dyn_storage"
					},
					{
						"astId": 19,
						"contract": "beggingcontract.sol:BeggingContract",
						"label": "topDonors",
						"offset": 0,
						"slot": "3",
						"type": "t_array(t_struct(Donor)15_storage)dyn_storage"
					},
					{
						"astId": 24,
						"contract": "beggingcontract.sol:BeggingContract",
						"label": "endTime",
						"offset": 0,
						"slot": "4",
						"type": "t_uint256"
					}
				],
				"types": {
					"t_address": {
						"encoding": "inplace",
						"label": "address",
						"numberOfBytes": "20"
					},
					"t_array(t_address)dyn_storage": {
						"base": "t_address",
						"encoding": "dynamic_array",
						"label": "address[]",
						"numberOfBytes": "32"
					},
					"t_array(t_struct(Donor)15_storage)dyn_storage": {
						"base": "t_struct(Donor)15_storage",
						"encoding": "dynamic_array",
						"label": "struct BeggingContract.Donor[]",
						"numberOfBytes": "32"
					},
					"t_mapping(t_address,t_uint256)": {
						"encoding": "mapping",
						"key": "t_address",
						"label": "mapping(address => uint256)",
						"numberOfBytes": "32",
						"value": "t_uint256"
					},
					"t_struct(Donor)15_storage": {
						"encoding": "inplace",
						"label": "struct BeggingContract.Donor",
						"members": [
							{
								"astId": 12,
								"contract": "beggingcontract.sol:BeggingContract",
								"label": "addr",
								"offset": 0,
								"slot": "0",
								"type": "t_address"
							},
							{
								"astId": 14,
								"contract": "beggingcontract.sol:BeggingContract",
								"label": "amount",
								"offset": 0,
								"slot": "1",
								"type": "t_uint256"
							}
						],
						"numberOfBytes": "64"
					},
					"t_uint256": {
						"encoding": "inplace",
						"label": "uint256",
						"numberOfBytes": "32"
					}
				}
			},
			"userdoc": {
				"kind": "user",
				"methods": {},
				"version": 1
			}
		}
	}
}